{
  "contractName": "BatchExchange",
  "abi": [
    {
      "constant": true,
      "inputs": [],
      "name": "IMPROVEMENT_DENOMINATOR",
      "outputs": [
        {
          "name": "",
          "type": "uint256"
        }
      ],
      "payable": false,
      "stateMutability": "view",
      "type": "function"
    },
    {
      "constant": true,
      "inputs": [],
      "name": "getSecondsRemainingInBatch",
      "outputs": [
        {
          "name": "",
          "type": "uint256"
        }
      ],
      "payable": false,
      "stateMutability": "view",
      "type": "function"
    },
    {
      "constant": false,
      "inputs": [
        {
          "name": "token",
          "type": "address"
        },
        {
          "name": "amount",
          "type": "uint256"
        }
      ],
      "name": "requestWithdraw",
      "outputs": [],
      "payable": false,
      "stateMutability": "nonpayable",
      "type": "function"
    },
    {
      "constant": true,
      "inputs": [],
      "name": "FEE_FOR_LISTING_TOKEN_IN_OWL",
      "outputs": [
        {
          "name": "",
          "type": "uint256"
        }
      ],
      "payable": false,
      "stateMutability": "view",
      "type": "function"
    },
    {
      "constant": false,
      "inputs": [
        {
          "name": "token",
          "type": "address"
        },
        {
          "name": "amount",
          "type": "uint256"
        }
      ],
      "name": "deposit",
      "outputs": [],
      "payable": false,
      "stateMutability": "nonpayable",
      "type": "function"
    },
    {
      "constant": true,
      "inputs": [],
      "name": "AMOUNT_MINIMUM",
      "outputs": [
        {
          "name": "",
          "type": "uint128"
        }
      ],
      "payable": false,
      "stateMutability": "view",
      "type": "function"
    },
    {
      "constant": true,
      "inputs": [],
      "name": "feeToken",
      "outputs": [
        {
          "name": "",
          "type": "address"
        }
      ],
      "payable": false,
      "stateMutability": "view",
      "type": "function"
    },
    {
      "constant": true,
      "inputs": [
        {
          "name": "",
          "type": "uint16"
        }
      ],
      "name": "currentPrices",
      "outputs": [
        {
          "name": "",
          "type": "uint128"
        }
      ],
      "payable": false,
      "stateMutability": "view",
      "type": "function"
    },
    {
      "constant": true,
      "inputs": [
        {
          "name": "",
          "type": "address"
        },
        {
          "name": "",
          "type": "uint256"
        }
      ],
      "name": "orders",
      "outputs": [
        {
          "name": "buyToken",
          "type": "uint16"
        },
        {
          "name": "sellToken",
          "type": "uint16"
        },
        {
          "name": "validFrom",
          "type": "uint32"
        },
        {
          "name": "validUntil",
          "type": "uint32"
        },
        {
          "name": "priceNumerator",
          "type": "uint128"
        },
        {
          "name": "priceDenominator",
          "type": "uint128"
        },
        {
          "name": "usedAmount",
          "type": "uint128"
        }
      ],
      "payable": false,
      "stateMutability": "view",
      "type": "function"
    },
    {
      "constant": true,
      "inputs": [],
      "name": "UNLIMITED_ORDER_AMOUNT",
      "outputs": [
        {
          "name": "",
          "type": "uint128"
        }
      ],
      "payable": false,
      "stateMutability": "view",
      "type": "function"
    },
    {
      "constant": true,
      "inputs": [],
      "name": "numTokens",
      "outputs": [
        {
          "name": "",
          "type": "uint16"
        }
      ],
      "payable": false,
      "stateMutability": "view",
      "type": "function"
    },
    {
      "constant": true,
      "inputs": [
        {
          "name": "",
          "type": "address"
        },
        {
          "name": "",
          "type": "address"
        }
      ],
      "name": "lastCreditBatchId",
      "outputs": [
        {
          "name": "",
          "type": "uint32"
        }
      ],
      "payable": false,
      "stateMutability": "view",
      "type": "function"
    },
    {
      "constant": true,
      "inputs": [],
      "name": "latestSolution",
      "outputs": [
        {
          "name": "batchId",
          "type": "uint32"
        },
        {
          "name": "solutionSubmitter",
          "type": "address"
        },
        {
          "name": "feeReward",
          "type": "uint256"
        },
        {
          "name": "objectiveValue",
          "type": "uint256"
        }
      ],
      "payable": false,
      "stateMutability": "view",
      "type": "function"
    },
    {
      "constant": true,
      "inputs": [
        {
          "name": "user",
          "type": "address"
        },
        {
          "name": "token",
          "type": "address"
        }
      ],
      "name": "getPendingDeposit",
      "outputs": [
        {
          "name": "",
          "type": "uint256"
        },
        {
          "name": "",
          "type": "uint32"
        }
      ],
      "payable": false,
      "stateMutability": "view",
      "type": "function"
    },
    {
      "constant": true,
      "inputs": [
        {
          "name": "user",
          "type": "address"
        },
        {
          "name": "token",
          "type": "address"
        }
      ],
      "name": "getPendingWithdraw",
      "outputs": [
        {
          "name": "",
          "type": "uint256"
        },
        {
          "name": "",
          "type": "uint32"
        }
      ],
      "payable": false,
      "stateMutability": "view",
      "type": "function"
    },
    {
      "constant": true,
      "inputs": [
        {
          "name": "user",
          "type": "address"
        },
        {
          "name": "token",
          "type": "address"
        }
      ],
      "name": "getBalance",
      "outputs": [
        {
          "name": "",
          "type": "uint256"
        }
      ],
      "payable": false,
      "stateMutability": "view",
      "type": "function"
    },
    {
      "constant": true,
      "inputs": [],
      "name": "FEE_DENOMINATOR",
      "outputs": [
        {
          "name": "",
          "type": "uint128"
        }
      ],
      "payable": false,
      "stateMutability": "view",
      "type": "function"
    },
    {
      "constant": true,
      "inputs": [],
      "name": "ENCODED_AUCTION_ELEMENT_WIDTH",
      "outputs": [
        {
          "name": "",
          "type": "uint128"
        }
      ],
      "payable": false,
      "stateMutability": "view",
      "type": "function"
    },
    {
      "constant": true,
      "inputs": [],
      "name": "BATCH_TIME",
      "outputs": [
        {
          "name": "",
          "type": "uint32"
        }
      ],
      "payable": false,
      "stateMutability": "view",
      "type": "function"
    },
    {
      "constant": true,
      "inputs": [],
      "name": "getCurrentBatchId",
      "outputs": [
        {
          "name": "",
          "type": "uint32"
        }
      ],
      "payable": false,
      "stateMutability": "view",
      "type": "function"
    },
    {
      "constant": false,
      "inputs": [
        {
          "name": "token",
          "type": "address"
        },
        {
          "name": "amount",
          "type": "uint256"
        },
        {
          "name": "batchId",
          "type": "uint32"
        }
      ],
      "name": "requestFutureWithdraw",
      "outputs": [],
      "payable": false,
      "stateMutability": "nonpayable",
      "type": "function"
    },
    {
      "constant": true,
      "inputs": [
        {
          "name": "user",
          "type": "address"
        },
        {
          "name": "token",
          "type": "address"
        }
      ],
      "name": "hasValidWithdrawRequest",
      "outputs": [
        {
          "name": "",
          "type": "bool"
        }
      ],
      "payable": false,
      "stateMutability": "view",
      "type": "function"
    },
    {
      "constant": true,
      "inputs": [],
      "name": "MAX_TOKENS",
      "outputs": [
        {
          "name": "",
          "type": "uint256"
        }
      ],
      "payable": false,
      "stateMutability": "view",
      "type": "function"
    },
    {
      "constant": false,
      "inputs": [
        {
          "name": "user",
          "type": "address"
        },
        {
          "name": "token",
          "type": "address"
        }
      ],
      "name": "withdraw",
      "outputs": [],
      "payable": false,
      "stateMutability": "nonpayable",
      "type": "function"
    },
    {
      "constant": true,
      "inputs": [],
      "name": "MAX_TOUCHED_ORDERS",
      "outputs": [
        {
          "name": "",
          "type": "uint256"
        }
      ],
      "payable": false,
      "stateMutability": "view",
      "type": "function"
    },
    {
      "inputs": [
        {
          "name": "maxTokens",
          "type": "uint256"
        },
        {
          "name": "_feeToken",
          "type": "address"
        }
      ],
      "payable": false,
      "stateMutability": "nonpayable",
      "type": "constructor"
    },
    {
      "anonymous": false,
      "inputs": [
        {
          "indexed": true,
          "name": "owner",
          "type": "address"
        },
        {
          "indexed": false,
          "name": "index",
          "type": "uint16"
        },
        {
          "indexed": true,
          "name": "buyToken",
          "type": "uint16"
        },
        {
          "indexed": true,
          "name": "sellToken",
          "type": "uint16"
        },
        {
          "indexed": false,
          "name": "validFrom",
          "type": "uint32"
        },
        {
          "indexed": false,
          "name": "validUntil",
          "type": "uint32"
        },
        {
          "indexed": false,
          "name": "priceNumerator",
          "type": "uint128"
        },
        {
          "indexed": false,
          "name": "priceDenominator",
          "type": "uint128"
        }
      ],
      "name": "OrderPlacement",
      "type": "event"
    },
    {
      "anonymous": false,
      "inputs": [
        {
          "indexed": false,
          "name": "token",
          "type": "address"
        },
        {
          "indexed": false,
          "name": "id",
          "type": "uint16"
        }
      ],
      "name": "TokenListing",
      "type": "event"
    },
    {
      "anonymous": false,
      "inputs": [
        {
          "indexed": true,
          "name": "owner",
          "type": "address"
        },
        {
          "indexed": false,
          "name": "id",
          "type": "uint16"
        }
      ],
      "name": "OrderCancellation",
      "type": "event"
    },
    {
      "anonymous": false,
      "inputs": [
        {
          "indexed": true,
          "name": "owner",
          "type": "address"
        },
        {
          "indexed": false,
          "name": "id",
          "type": "uint16"
        }
      ],
      "name": "OrderDeletion",
      "type": "event"
    },
    {
      "anonymous": false,
      "inputs": [
        {
          "indexed": true,
          "name": "owner",
          "type": "address"
        },
        {
          "indexed": true,
          "name": "orderId",
          "type": "uint16"
        },
        {
          "indexed": true,
          "name": "sellToken",
          "type": "uint16"
        },
        {
          "indexed": false,
          "name": "buyToken",
          "type": "uint16"
        },
        {
          "indexed": false,
          "name": "executedSellAmount",
          "type": "uint128"
        },
        {
          "indexed": false,
          "name": "executedBuyAmount",
          "type": "uint128"
        }
      ],
      "name": "Trade",
      "type": "event"
    },
    {
      "anonymous": false,
      "inputs": [
        {
          "indexed": true,
          "name": "owner",
          "type": "address"
        },
        {
          "indexed": true,
          "name": "orderId",
          "type": "uint16"
        },
        {
          "indexed": true,
          "name": "sellToken",
          "type": "uint16"
        },
        {
          "indexed": false,
          "name": "buyToken",
          "type": "uint16"
        },
        {
          "indexed": false,
          "name": "executedSellAmount",
          "type": "uint128"
        },
        {
          "indexed": false,
          "name": "executedBuyAmount",
          "type": "uint128"
        }
      ],
      "name": "TradeReversion",
      "type": "event"
    },
    {
      "anonymous": false,
      "inputs": [
        {
          "indexed": true,
          "name": "submitter",
          "type": "address"
        },
        {
          "indexed": false,
          "name": "utility",
          "type": "uint256"
        },
        {
          "indexed": false,
          "name": "disregardedUtility",
          "type": "uint256"
        },
        {
          "indexed": false,
          "name": "burntFees",
          "type": "uint256"
        },
        {
          "indexed": false,
          "name": "lastAuctionBurntFees",
          "type": "uint256"
        },
        {
          "indexed": false,
          "name": "prices",
          "type": "uint128[]"
        },
        {
          "indexed": false,
          "name": "tokenIdsForPrice",
          "type": "uint16[]"
        }
      ],
      "name": "SolutionSubmission",
      "type": "event"
    },
    {
      "anonymous": false,
      "inputs": [
        {
          "indexed": true,
          "name": "user",
          "type": "address"
        },
        {
          "indexed": true,
          "name": "token",
          "type": "address"
        },
        {
          "indexed": false,
          "name": "amount",
          "type": "uint256"
        },
        {
          "indexed": false,
          "name": "batchId",
          "type": "uint32"
        }
      ],
      "name": "Deposit",
      "type": "event"
    },
    {
      "anonymous": false,
      "inputs": [
        {
          "indexed": true,
          "name": "user",
          "type": "address"
        },
        {
          "indexed": true,
          "name": "token",
          "type": "address"
        },
        {
          "indexed": false,
          "name": "amount",
          "type": "uint256"
        },
        {
          "indexed": false,
          "name": "batchId",
          "type": "uint32"
        }
      ],
      "name": "WithdrawRequest",
      "type": "event"
    },
    {
      "anonymous": false,
      "inputs": [
        {
          "indexed": true,
          "name": "user",
          "type": "address"
        },
        {
          "indexed": true,
          "name": "token",
          "type": "address"
        },
        {
          "indexed": false,
          "name": "amount",
          "type": "uint256"
        }
      ],
      "name": "Withdraw",
      "type": "event"
    },
    {
      "constant": false,
      "inputs": [
        {
          "name": "token",
          "type": "address"
        }
      ],
      "name": "addToken",
      "outputs": [],
      "payable": false,
      "stateMutability": "nonpayable",
      "type": "function"
    },
    {
      "constant": false,
      "inputs": [
        {
          "name": "buyToken",
          "type": "uint16"
        },
        {
          "name": "sellToken",
          "type": "uint16"
        },
        {
          "name": "validUntil",
          "type": "uint32"
        },
        {
          "name": "buyAmount",
          "type": "uint128"
        },
        {
          "name": "sellAmount",
          "type": "uint128"
        }
      ],
      "name": "placeOrder",
      "outputs": [
        {
          "name": "",
          "type": "uint256"
        }
      ],
      "payable": false,
      "stateMutability": "nonpayable",
      "type": "function"
    },
    {
      "constant": false,
      "inputs": [
        {
          "name": "buyTokens",
          "type": "uint16[]"
        },
        {
          "name": "sellTokens",
          "type": "uint16[]"
        },
        {
          "name": "validFroms",
          "type": "uint32[]"
        },
        {
          "name": "validUntils",
          "type": "uint32[]"
        },
        {
          "name": "buyAmounts",
          "type": "uint128[]"
        },
        {
          "name": "sellAmounts",
          "type": "uint128[]"
        }
      ],
      "name": "placeValidFromOrders",
      "outputs": [
        {
          "name": "orderIds",
          "type": "uint16[]"
        }
      ],
      "payable": false,
      "stateMutability": "nonpayable",
      "type": "function"
    },
    {
      "constant": false,
      "inputs": [
        {
          "name": "orderIds",
          "type": "uint16[]"
        }
      ],
      "name": "cancelOrders",
      "outputs": [],
      "payable": false,
      "stateMutability": "nonpayable",
      "type": "function"
    },
    {
      "constant": false,
      "inputs": [
        {
          "name": "cancellations",
          "type": "uint16[]"
        },
        {
          "name": "buyTokens",
          "type": "uint16[]"
        },
        {
          "name": "sellTokens",
          "type": "uint16[]"
        },
        {
          "name": "validFroms",
          "type": "uint32[]"
        },
        {
          "name": "validUntils",
          "type": "uint32[]"
        },
        {
          "name": "buyAmounts",
          "type": "uint128[]"
        },
        {
          "name": "sellAmounts",
          "type": "uint128[]"
        }
      ],
      "name": "replaceOrders",
      "outputs": [
        {
          "name": "",
          "type": "uint16[]"
        }
      ],
      "payable": false,
      "stateMutability": "nonpayable",
      "type": "function"
    },
    {
      "constant": false,
      "inputs": [
        {
          "name": "batchId",
          "type": "uint32"
        },
        {
          "name": "claimedObjectiveValue",
          "type": "uint256"
        },
        {
          "name": "owners",
          "type": "address[]"
        },
        {
          "name": "orderIds",
          "type": "uint16[]"
        },
        {
          "name": "buyVolumes",
          "type": "uint128[]"
        },
        {
          "name": "prices",
          "type": "uint128[]"
        },
        {
          "name": "tokenIdsForPrice",
          "type": "uint16[]"
        }
      ],
      "name": "submitSolution",
      "outputs": [
        {
          "name": "",
          "type": "uint256"
        }
      ],
      "payable": false,
      "stateMutability": "nonpayable",
      "type": "function"
    },
    {
      "constant": true,
      "inputs": [
        {
          "name": "addr",
          "type": "address"
        }
      ],
      "name": "tokenAddressToIdMap",
      "outputs": [
        {
          "name": "",
          "type": "uint16"
        }
      ],
      "payable": false,
      "stateMutability": "view",
      "type": "function"
    },
    {
      "constant": true,
      "inputs": [
        {
          "name": "id",
          "type": "uint16"
        }
      ],
      "name": "tokenIdToAddressMap",
      "outputs": [
        {
          "name": "",
          "type": "address"
        }
      ],
      "payable": false,
      "stateMutability": "view",
      "type": "function"
    },
    {
      "constant": true,
      "inputs": [
        {
          "name": "addr",
          "type": "address"
        }
      ],
      "name": "hasToken",
      "outputs": [
        {
          "name": "",
          "type": "bool"
        }
      ],
      "payable": false,
      "stateMutability": "view",
      "type": "function"
    },
    {
      "constant": true,
      "inputs": [
        {
          "name": "user",
          "type": "address"
        },
        {
          "name": "offset",
          "type": "uint16"
        },
        {
          "name": "pageSize",
          "type": "uint16"
        }
      ],
      "name": "getEncodedUserOrdersPaginated",
      "outputs": [
        {
          "name": "elements",
          "type": "bytes"
        }
      ],
      "payable": false,
      "stateMutability": "view",
      "type": "function"
    },
    {
      "constant": true,
      "inputs": [
        {
          "name": "previousPageUser",
          "type": "address"
        },
        {
          "name": "pageSize",
          "type": "uint16"
        }
      ],
      "name": "getUsersPaginated",
      "outputs": [
        {
          "name": "users",
          "type": "bytes"
        }
      ],
      "payable": false,
      "stateMutability": "view",
      "type": "function"
    },
    {
      "constant": true,
      "inputs": [
        {
          "name": "user",
          "type": "address"
        }
      ],
      "name": "getEncodedUserOrders",
      "outputs": [
        {
          "name": "elements",
          "type": "bytes"
        }
      ],
      "payable": false,
      "stateMutability": "view",
      "type": "function"
    },
    {
      "constant": true,
      "inputs": [
        {
          "name": "previousPageUser",
          "type": "address"
        },
        {
          "name": "previousPageUserOffset",
          "type": "uint16"
        },
        {
          "name": "pageSize",
          "type": "uint16"
        }
      ],
      "name": "getEncodedUsersPaginated",
      "outputs": [
        {
          "name": "elements",
          "type": "bytes"
        }
      ],
      "payable": false,
      "stateMutability": "view",
      "type": "function"
    },
    {
      "constant": true,
      "inputs": [],
      "name": "getEncodedOrders",
      "outputs": [
        {
          "name": "elements",
          "type": "bytes"
        }
      ],
      "payable": false,
      "stateMutability": "view",
      "type": "function"
    },
    {
      "constant": true,
      "inputs": [
        {
          "name": "batchId",
          "type": "uint32"
        }
      ],
      "name": "acceptingSolutions",
      "outputs": [
        {
          "name": "",
          "type": "bool"
        }
      ],
      "payable": false,
      "stateMutability": "view",
      "type": "function"
    },
    {
      "constant": true,
      "inputs": [],
      "name": "getCurrentObjectiveValue",
      "outputs": [
        {
          "name": "",
          "type": "uint256"
        }
      ],
      "payable": false,
      "stateMutability": "view",
      "type": "function"
    }
  ],
  "bytecode": "0x60806040523480156200001157600080fd5b5060405160408062005f1a833981018060405260408110156200003357600080fd5b5080516020918201516000808052600584527f05b8ccbb9d4d8fb16ea74ce3c29a41f1b461fbdaff4714a0d9a8eb05499746bc80546001600160801b031916670de0b6b3a76400001790556002839055600380546001600160a01b038085166201000090810262010000600160b01b03199093169290921792839055604080517f095ea7b3000000000000000000000000000000000000000000000000000000008152306004820152600019602482015290519697959692909304169363095ea7b3936044808501949293928390030190829087803b1580156200011657600080fd5b505af11580156200012b573d6000803e3d6000fd5b505050506040513d60208110156200014257600080fd5b50620001579050816200015f602090811b901c565b5050620003fd565b60025460035461ffff1610620001d657604080517f08c379a000000000000000000000000000000000000000000000000000000000815260206004820152601260248201527f4d617820746f6b656e7320726561636865640000000000000000000000000000604482015290519081900360640190fd5b60035461ffff16156200027657600354604080517f4417f4db000000000000000000000000000000000000000000000000000000008152336004820152678ac7230489e8000060248201529051620100009092046001600160a01b031691634417f4db9160448082019260009290919082900301818387803b1580156200025c57600080fd5b505af115801562000271573d6000803e3d6000fd5b505050505b600354604080517f9f3cb655000000000000000000000000000000000000000000000000000000008152600e600482015261ffff90921660248301526001600160a01b03831660448301525173__IdToAddressBiMap______________________91639f3cb655916064808301926020929190829003018186803b158015620002fe57600080fd5b505af415801562000313573d6000803e3d6000fd5b505050506040513d60208110156200032a57600080fd5b50516200039857604080517f08c379a000000000000000000000000000000000000000000000000000000000815260206004820152601860248201527f546f6b656e20616c726561647920726567697374657265640000000000000000604482015290519081900360640190fd5b600354604080516001600160a01b038416815261ffff909216602083015280517fe4b282c4351ffe36572a572de193a7de086edc47c9e62669fe6ab49fc53a33139281900390910190a1506003805461ffff8082166001011661ffff19909116179055565b615b0d806200040d6000396000f3fe608060405234801561001057600080fd5b50600436106102535760003560e01c806395466a4611610146578063e1d5f64e116100c3578063f36b635511610087578063f36b635514611217578063f3f479821461124f578063f47c84c51461127d578063f940e38514611285578063fb736d32146112b3578063ff97c626146112bb57610253565b8063e1d5f64e146111a1578063e48c015e146111a9578063e720ac8e146111b1578063ed2da357146111b9578063ef574d23146111f157610253565b8063c33eb9f61161010a578063c33eb9f6146110f4578063c49598fb14611122578063d48bfca714611145578063d4fac45d1461116b578063d73792a91461119957610253565b806395466a4614610c4c5780639bb0f59914610c845780639cc84ed314610cbe578063b3c0afa114610cfb578063c1ef283814610d4757610253565b80634bdc1b4c116101d457806372f3dd391161019857806372f3dd3914610b38578063793b8c6d14610b5e5780637fb47b0614610bde5780638e499bcf14610be6578063907767c014610c0557610253565b80634bdc1b4c146106cf57806361ed16d014610770578063647846a51461079457806365cc3e781461079c57806366367c1014610b1757610253565b80632f10d0821161021b5780632f10d08214610600578063397a1b281461063d57806341e383ed1461066b57806343383ac31461067357806347e7ef24146106a357610253565b8063094c7e191461025857806317569c1d1461027257806323d4a3c91461027a57806326c3d394146102f75780632e4c83bd14610345575b600080fd5b6102606112c3565b60408051918252519081900360200190f35b6102606112c8565b6102826112d5565b6040805160208082528351818301528351919283929083019185019080838360005b838110156102bc5781810151838201526020016102a4565b50505050905090810190601f1680156102e95780820380516001836020036101000a031916815260200191505b509250505060405180910390f35b610260600480360360a081101561030d57600080fd5b5061ffff813581169160208101359091169063ffffffff604082013516906001600160801b03606082013581169160800135166114be565b610260600480360360e081101561035b57600080fd5b63ffffffff82351691602081013591810190606081016040820135600160201b81111561038757600080fd5b82018360208201111561039957600080fd5b803590602001918460208302840111600160201b831117156103ba57600080fd5b9190808060200260200160405190810160405280939291908181526020018383602002808284376000920191909152509295949360208101935035915050600160201b81111561040957600080fd5b82018360208201111561041b57600080fd5b803590602001918460208302840111600160201b8311171561043c57600080fd5b9190808060200260200160405190810160405280939291908181526020018383602002808284376000920191909152509295949360208101935035915050600160201b81111561048b57600080fd5b82018360208201111561049d57600080fd5b803590602001918460208302840111600160201b831117156104be57600080fd5b9190808060200260200160405190810160405280939291908181526020018383602002808284376000920191909152509295949360208101935035915050600160201b81111561050d57600080fd5b82018360208201111561051f57600080fd5b803590602001918460208302840111600160201b8311171561054057600080fd5b9190808060200260200160405190810160405280939291908181526020018383602002808284376000920191909152509295949360208101935035915050600160201b81111561058f57600080fd5b8201836020820111156105a157600080fd5b803590602001918460208302840111600160201b831117156105c257600080fd5b9190808060200260200160405190810160405280939291908181526020018383602002808284376000920191909152509295506114e3945050505050565b6106216004803603602081101561061657600080fd5b503561ffff16611f34565b604080516001600160a01b039092168252519081900360200190f35b6106696004803603604081101561065357600080fd5b506001600160a01b038135169060200135611fcb565b005b610260611fe1565b6102826004803603604081101561068957600080fd5b5080356001600160a01b0316906020013561ffff16611fed565b610669600480360360408110156106b957600080fd5b506001600160a01b038135169060200135612259565b610669600480360360208110156106e557600080fd5b810190602081018135600160201b8111156106ff57600080fd5b82018360208201111561071157600080fd5b803590602001918460208302840111600160201b8311171561073257600080fd5b91908080602002602001604051908101604052809392919081815260200183836020028082843760009201919091525092955061235a945050505050565b6107786125d9565b604080516001600160801b039092168252519081900360200190f35b6106216125df565b610ac7600480360360c08110156107b257600080fd5b810190602081018135600160201b8111156107cc57600080fd5b8201836020820111156107de57600080fd5b803590602001918460208302840111600160201b831117156107ff57600080fd5b9190808060200260200160405190810160405280939291908181526020018383602002808284376000920191909152509295949360208101935035915050600160201b81111561084e57600080fd5b82018360208201111561086057600080fd5b803590602001918460208302840111600160201b8311171561088157600080fd5b9190808060200260200160405190810160405280939291908181526020018383602002808284376000920191909152509295949360208101935035915050600160201b8111156108d057600080fd5b8201836020820111156108e257600080fd5b803590602001918460208302840111600160201b8311171561090357600080fd5b9190808060200260200160405190810160405280939291908181526020018383602002808284376000920191909152509295949360208101935035915050600160201b81111561095257600080fd5b82018360208201111561096457600080fd5b803590602001918460208302840111600160201b8311171561098557600080fd5b9190808060200260200160405190810160405280939291908181526020018383602002808284376000920191909152509295949360208101935035915050600160201b8111156109d457600080fd5b8201836020820111156109e657600080fd5b803590602001918460208302840111600160201b83111715610a0757600080fd5b9190808060200260200160405190810160405280939291908181526020018383602002808284376000920191909152509295949360208101935035915050600160201b811115610a5657600080fd5b820183602082011115610a6857600080fd5b803590602001918460208302840111600160201b83111715610a8957600080fd5b9190808060200260200160405190810160405280939291908181526020018383602002808284376000920191909152509295506125f4945050505050565b60408051602080825283518183015283519192839290830191858101910280838360005b83811015610b03578181015183820152602001610aeb565b505050509050019250505060405180910390f35b61077860048036036020811015610b2d57600080fd5b503561ffff166126e2565b61028260048036036020811015610b4e57600080fd5b50356001600160a01b03166126fd565b610b8a60048036036040811015610b7457600080fd5b506001600160a01b03813516906020013561270d565b6040805161ffff988916815296909716602087015263ffffffff948516868801529290931660608501526001600160801b03908116608085015291821660a08401521660c082015290519081900360e00190f35b61077861278b565b610bee612791565b6040805161ffff9092168252519081900360200190f35b610c3360048036036040811015610c1b57600080fd5b506001600160a01b038135811691602001351661279b565b6040805163ffffffff9092168252519081900360200190f35b61028260048036036060811015610c6257600080fd5b506001600160a01b038135169061ffff602082013581169160400135166127be565b610caa60048036036020811015610c9a57600080fd5b50356001600160a01b03166129d7565b604080519115158252519081900360200190f35b610cc6612a3f565b6040805163ffffffff90951685526001600160a01b039093166020850152838301919091526060830152519081900360800190f35b610d2960048036036040811015610d1157600080fd5b506001600160a01b0381358116916020013516612a63565b6040805192835263ffffffff90911660208301528051918290030190f35b610ac7600480360360e0811015610d5d57600080fd5b810190602081018135600160201b811115610d7757600080fd5b820183602082011115610d8957600080fd5b803590602001918460208302840111600160201b83111715610daa57600080fd5b9190808060200260200160405190810160405280939291908181526020018383602002808284376000920191909152509295949360208101935035915050600160201b811115610df957600080fd5b820183602082011115610e0b57600080fd5b803590602001918460208302840111600160201b83111715610e2c57600080fd5b9190808060200260200160405190810160405280939291908181526020018383602002808284376000920191909152509295949360208101935035915050600160201b811115610e7b57600080fd5b820183602082011115610e8d57600080fd5b803590602001918460208302840111600160201b83111715610eae57600080fd5b9190808060200260200160405190810160405280939291908181526020018383602002808284376000920191909152509295949360208101935035915050600160201b811115610efd57600080fd5b820183602082011115610f0f57600080fd5b803590602001918460208302840111600160201b83111715610f3057600080fd5b9190808060200260200160405190810160405280939291908181526020018383602002808284376000920191909152509295949360208101935035915050600160201b811115610f7f57600080fd5b820183602082011115610f9157600080fd5b803590602001918460208302840111600160201b83111715610fb257600080fd5b9190808060200260200160405190810160405280939291908181526020018383602002808284376000920191909152509295949360208101935035915050600160201b81111561100157600080fd5b82018360208201111561101357600080fd5b803590602001918460208302840111600160201b8311171561103457600080fd5b9190808060200260200160405190810160405280939291908181526020018383602002808284376000920191909152509295949360208101935035915050600160201b81111561108357600080fd5b82018360208201111561109557600080fd5b803590602001918460208302840111600160201b831117156110b657600080fd5b919080806020026020016040519081016040528093929190818152602001838360200280828437600092019190915250929550612abd945050505050565b610d296004803603604081101561110a57600080fd5b506001600160a01b0381358116916020013516612ae2565b610caa6004803603602081101561113857600080fd5b503563ffffffff16612b3c565b6106696004803603602081101561115b57600080fd5b50356001600160a01b0316612b70565b6102606004803603604081101561118157600080fd5b506001600160a01b0381358116916020013516612dac565b610778612ed5565b610778612edb565b610c33612ee0565b610c33612ee6565b610282600480360360608110156111cf57600080fd5b506001600160a01b038135169061ffff60208201358116916040013516612eee565b610bee6004803603602081101561120757600080fd5b50356001600160a01b0316613064565b6106696004803603606081101561122d57600080fd5b5080356001600160a01b0316906020810135906040013563ffffffff166130cc565b610caa6004803603604081101561126557600080fd5b506001600160a01b03813581169160200135166131d6565b61026061324e565b6106696004803603604081101561129b57600080fd5b506001600160a01b0381358116916020013516613254565b610260613451565b610260613456565b606481565b61012c4281900690035b90565b60606000600c73__IterableAppendOnlySet_________________63d58c862c90916040518263ffffffff1660e01b81526004018082815260200191505060206040518083038186803b15801561132b57600080fd5b505af415801561133f573d6000803e3d6000fd5b505050506040513d602081101561135557600080fd5b505111156112d2576000600c73__IterableAppendOnlySet_________________6368fb2bc290916040518263ffffffff1660e01b81526004018082815260200191505060206040518083038186803b1580156113b157600080fd5b505af41580156113c5573d6000803e3d6000fd5b505050506040513d60208110156113db57600080fd5b5051905060005b806114b9576114006113f3836126fd565b849063ffffffff61348916565b600d549093506001600160a01b0383811691161415611421575060016114b4565b60408051600160e21b63218777b3028152600c60048201526001600160a01b0384166024820152905173__IterableAppendOnlySet_________________9163861ddecc916044808301926020929190829003018186803b15801561148557600080fd5b505af4158015611499573d6000803e3d6000fd5b505050506040513d60208110156114af57600080fd5b505191505b6113e2565b505090565b60006114d586866114cd612ee6565b878787613506565b61ffff169695505050505050565b60006114ee88612b3c565b61152c57604051600160e51b62461bcd02815260040180806020018281038252602f81526020018061588b602f913960400191505060405180910390fd5b61153587613a87565b61157357604051600160e51b62461bcd02815260040180806020018281038252603f8152602001806159e6603f913960400191505060405180910390fd5b61157c83613aba565b6115ba57604051600160e51b62461bcd02815260040180806020018281038252602c8152602001806158ff602c913960400191505060405180910390fd5b816000815181106115c757fe5b602002602001015161ffff166000141561162b5760408051600160e51b62461bcd02815260206004820152601a60248201527f46656520746f6b656e2068617320666978656420707269636521000000000000604482015290519081900360640190fd5b61163482613b11565b61167257604051600160e51b62461bcd02815260040180806020018281038252602181526020018061599f6021913960400191505060405180910390fd5b601e865111156116b657604051600160e51b62461bcd0281526004018080602001828103825260238152602001806157e56023913960400191505060405180910390fd5b60006116c0613b69565b90506116ca613bfe565b6116d48484613fcd565b6116e060076000615622565b60606116eb846140bb565b90506000805b8951811015611b5557611702615643565b600460008c848151811061171257fe5b60200260200101516001600160a01b03166001600160a01b031681526020019081526020016000208a838151811061174657fe5b602002602001015161ffff168154811061175c57fe5b60009182526020918290206040805160e0810182526002909302909101805461ffff8082168552620100008204169484019490945263ffffffff600160201b8504811692840192909252600160401b840490911660608301526001600160801b03600160601b909304831660808301526001015480831660a0830152600160801b900490911660c082015290506117f3818e6140f2565b6118475760408051600160e51b62461bcd02815260206004820152601060248201527f4f7264657220697320696e76616c696400000000000000000000000000000000604482015290519081900360640190fd5b6000806118678b858151811061185957fe5b602002602001015184614125565b90925090506127106001600160801b03831610156118b957604051600160e51b62461bcd0281526004018080602001828103825260238152602001806157c26023913960400191505060405180910390fd5b6127106001600160801b038216101561190657604051600160e51b62461bcd028152600401808060200182810382526024815260200180615a4e6024913960400191505060405180910390fd5b825160208401516119219188918c868663ffffffff61417316565b806001600160801b031661193484614227565b6001600160801b0316101561197d57604051600160e51b62461bcd02815260040180806020018281038252603181526020018061594d6031913960400191505060405180910390fd5b60a083015161199e906001600160801b03848116911663ffffffff61423616565b60808401516119bf906001600160801b03848116911663ffffffff61423616565b1115611a155760408051600160e51b62461bcd02815260206004820152601960248201527f6c696d6974207072696365206e6f742073617469736669656400000000000000604482015290519081900360640190fd5b611a2f611a228385614292565b869063ffffffff6143c516565b9450611a628d8581518110611a4057fe5b60200260200101518d8681518110611a5457fe5b602002602001015183614422565b611a958d8581518110611a7157fe5b6020026020010151611a868560000151611f34565b846001600160801b03166145b9565b826020015161ffff168c8581518110611aaa57fe5b602002602001015161ffff168e8681518110611ac257fe5b60200260200101516001600160a01b03167fafa5bc1fb80950b7cb2353ba0cf16a6d68de75801f2dac54b2dae9268450010a86600001518587604051808461ffff1661ffff168152602001836001600160801b03166001600160801b03168152602001826001600160801b03166001600160801b03168152602001935050505060405180910390a45050506001016116f1565b5060005b8951811015611caf57611b6a615643565b600460008c8481518110611b7a57fe5b60200260200101516001600160a01b03166001600160a01b031681526020019081526020016000208a8381518110611bae57fe5b602002602001015161ffff1681548110611bc457fe5b600091825260208083206040805160e0810182526002909402909101805461ffff8082168652620100008204169385019390935263ffffffff600160201b8404811692850192909252600160401b830490911660608401526001600160801b03600160601b909204821660808401526001015480821660a0840152600160801b90041660c08201528a51909250611c6f908b9085908110611c6157fe5b602002602001015183614125565b915050611ca58c8481518110611c8157fe5b6020026020010151611c968460200151611f34565b836001600160801b0316614619565b5050600101611b59565b506000805b8a51811015611dda57611dd0611dc3600460008e8581518110611cd357fe5b60200260200101516001600160a01b03166001600160a01b031681526020019081526020016000208c8481518110611d0757fe5b602002602001015161ffff1681548110611d1d57fe5b60009182526020918290206040805160e0810182526002909302909101805461ffff8082168552620100008204169484019490945263ffffffff600160201b8504811692840192909252600160401b840490911660608301526001600160801b03600160601b909304831660808301526001015480831660a0830152600160801b900490911660c08201528d518e9085908110611db657fe5b6020026020010151614685565b839063ffffffff6143c516565b9150600101611cb4565b5060006002611de885614788565b81611def57fe5b0490506000611e1483611e08868563ffffffff6143c516565b9063ffffffff6147a616565b9050611e1f816147e8565b611e2882614834565b611e3185614850565b611e3e8e8d8d8d8c614925565b336001600160a01b03167f2140b6253bf38aea0a4ac9e9e6427b256e4035d60df4a85bb139ce975eb6b41d8585858a8e8e604051808781526020018681526020018581526020018481526020018060200180602001838103835285818151815260200191508051906020019060200280838360005b83811015611ecb578181015183820152602001611eb3565b50505050905001838103825284818151815260200191508051906020019060200280838360005b83811015611f0a578181015183820152602001611ef2565b505050509050019850505050505050505060405180910390a29d9c50505050505050505050505050565b60408051600160e21b632ffeb2d7028152600e600482015261ffff83166024820152905160009173__IdToAddressBiMap______________________9163bffacb5c91604480820192602092909190829003018186803b158015611f9757600080fd5b505af4158015611fab573d6000803e3d6000fd5b505050506040513d6020811015611fc157600080fd5b505190505b919050565b611fdd8282611fd8612ee6565b6130cc565b5050565b678ac7230489e8000081565b6060600c73__IterableAppendOnlySet_________________63d58c862c90916040518263ffffffff1660e01b81526004018082815260200191505060206040518083038186803b15801561204157600080fd5b505af4158015612055573d6000803e3d6000fd5b505050506040513d602081101561206b57600080fd5b505161207657612253565b6000836001600160a01b03811661214d5760408051600160e11b63347d95e1028152600c6004820152905173__IterableAppendOnlySet_________________916368fb2bc2916024808301926020929190829003018186803b1580156120dc57600080fd5b505af41580156120f0573d6000803e3d6000fd5b505050506040513d602081101561210657600080fd5b5051604080516001600160a01b03831660601b602082015281518082036014018152603490910190915290915061214490849063ffffffff61348916565b92506001909101905b8361ffff168261ffff161080156121725750600d546001600160a01b03828116911614155b156122505760408051600160e21b63218777b3028152600c60048201526001600160a01b0383166024820152905173__IterableAppendOnlySet_________________9163861ddecc916044808301926020929190829003018186803b1580156121db57600080fd5b505af41580156121ef573d6000803e3d6000fd5b505050506040513d602081101561220557600080fd5b5051604080516001600160a01b03831660601b602082015281518082036014018152603490910190915290915061224390849063ffffffff61348916565b925060019091019061214d565b50505b92915050565b6122633383614a75565b61226f82333084614b35565b336000908152602081815260408083206001600160a01b03861684529091529020600101546122a4908263ffffffff6143c516565b336000908152602081815260408083206001600160a01b03871684529091529020600101556122d1612ee6565b336000818152602081815260408083206001600160a01b0388168085529252909120600201805463ffffffff191663ffffffff94909416939093179092557fc11cc34e93c67a93382b99f2498e9937198798f3c1c2888008ffc0eeb82f68c483612339612ee6565b6040805192835263ffffffff90911660208301528051918290030190a35050565b60006001612366612ee6565b03905060005b82518161ffff1610156125d45733600090815260046020526040902083516124469190859061ffff851690811061239f57fe5b602002602001015161ffff16815481106123b557fe5b60009182526020918290206040805160e0810182526002909302909101805461ffff8082168552620100008204169484019490945263ffffffff600160201b8504811692840192909252600160401b840490911660608301526001600160801b03600160601b909304831660808301526001015480831660a0830152600160801b900490911660c0820152836140f2565b612502573360009081526004602052604090208351849061ffff841690811061246b57fe5b602002602001015161ffff168154811061248157fe5b60009182526020822060029091020180546001600160e01b031916815560010155825133907f7b0a9854603fbbe7606a58b70d113bd0d1ec8475f1b8cc9603c2d377e67835cd90859061ffff85169081106124d857fe5b6020026020010151604051808261ffff1661ffff16815260200191505060405180910390a26125cc565b3360009081526004602052604090208351839190859061ffff851690811061252657fe5b602002602001015161ffff168154811061253c57fe5b906000526020600020906002020160000160086101000a81548163ffffffff021916908363ffffffff160217905550336001600160a01b03167f7a02963a37046835196f1a3185a036fd67cfca72283e46e4b3cdb99939851937848361ffff16815181106125a657fe5b6020026020010151604051808261ffff1661ffff16815260200191505060405180910390a25b60010161236c565b505050565b61271081565b6003546201000090046001600160a01b031681565b60608651604051908082528060200260200182016040528015612621578160200160208202803883390190505b50905060005b87518110156126d7576126b088828151811061263f57fe5b602002602001015188838151811061265357fe5b602002602001015188848151811061266757fe5b602002602001015188858151811061267b57fe5b602002602001015188868151811061268f57fe5b60200260200101518887815181106126a357fe5b6020026020010151613506565b8282815181106126bc57fe5b61ffff90921660209283029190910190910152600101612627565b509695505050505050565b6005602052600090815260409020546001600160801b031681565b6060612253826000600019612eee565b6004602052816000526040600020818154811061272657fe5b60009182526020909120600290910201805460019091015461ffff808316945062010000830416925063ffffffff600160201b8304811692600160401b8104909116916001600160801b03600160601b90920482169181811691600160801b90041687565b60001981565b60035461ffff1681565b600160209081526000928352604080842090915290825290205463ffffffff1681565b6060600c73__IterableAppendOnlySet_________________63d58c862c90916040518263ffffffff1660e01b81526004018082815260200191505060206040518083038186803b15801561281257600080fd5b505af4158015612826573d6000803e3d6000fd5b505050506040513d602081101561283c57600080fd5b5051612847576129d0565b82846001600160a01b0381166128db5760408051600160e11b63347d95e1028152600c6004820152905173__IterableAppendOnlySet_________________916368fb2bc2916024808301926020929190829003018186803b1580156128ac57600080fd5b505af41580156128c0573d6000803e3d6000fd5b505050506040513d60208110156128d657600080fd5b505190505b825161ffff8516906070900410156129cd576129116113f3828460706001600160801b031687518161290957fe5b048803612eee565b600d549093506001600160a01b038281169116141561293257506129d09050565b60408051600160e21b63218777b3028152600c60048201526001600160a01b038316602482015290516000935073__IterableAppendOnlySet_________________9163861ddecc916044808301926020929190829003018186803b15801561299a57600080fd5b505af41580156129ae573d6000803e3d6000fd5b505050506040513d60208110156129c457600080fd5b505190506128db565b50505b9392505050565b60408051600160e11b636e8930a3028152600e60048201526001600160a01b0383166024820152905160009173__IdToAddressBiMap______________________9163dd12614691604480820192602092909190829003018186803b158015611f9757600080fd5b600654600954600a54600b5463ffffffff909316926001600160a01b039092169184565b600080612a6e61567f565b5050506001600160a01b039182166000908152602081815260408083209390941682529182528290208251808401909352600181015480845260029091015463ffffffff169290910182905291565b6060612ac88861235a565b612ad68787878787876125f4565b98975050505050505050565b600080612aed61567f565b5050506001600160a01b039182166000908152602081815260408083209390941682529182528290208251808401909352600381015480845260049091015463ffffffff169290910182905291565b60006001612b48612ee6565b0363ffffffff168263ffffffff161480156122535750603c612b686112c8565b101592915050565b60025460035461ffff1610612bcf5760408051600160e51b62461bcd02815260206004820152601260248201527f4d617820746f6b656e7320726561636865640000000000000000000000000000604482015290519081900360640190fd5b60035461ffff1615612c565760035460408051600160e01b634417f4db028152336004820152678ac7230489e8000060248201529051620100009092046001600160a01b031691634417f4db9160448082019260009290919082900301818387803b158015612c3d57600080fd5b505af1158015612c51573d6000803e3d6000fd5b505050505b60035460408051600160e01b639f3cb655028152600e600482015261ffff90921660248301526001600160a01b03831660448301525173__IdToAddressBiMap______________________91639f3cb655916064808301926020929190829003018186803b158015612cc757600080fd5b505af4158015612cdb573d6000803e3d6000fd5b505050506040513d6020811015612cf157600080fd5b5051612d475760408051600160e51b62461bcd02815260206004820152601860248201527f546f6b656e20616c726561647920726567697374657265640000000000000000604482015290519081900360640190fd5b600354604080516001600160a01b038416815261ffff909216602083015280517fe4b282c4351ffe36572a572de193a7de086edc47c9e62669fe6ab49fc53a33139281900390910190a1506003805461ffff8082166001011661ffff19909116179055565b6001600160a01b03808316600090815260208181526040808320938516835292905290812054612dda612ee6565b6001600160a01b038086166000908152602081815260408083209388168352929052206002015463ffffffff91821691161015612e4c576001600160a01b0380851660009081526020818152604080832093871683529290522060010154612e4990829063ffffffff6143c516565b90505b612e54612ee6565b6001600160a01b038086166000908152602081815260408083209388168352929052206004015463ffffffff918216911610156129d0576001600160a01b0380851660009081526020818152604080832093871683529290522060030154612ecd90612ec09083614b98565b829063ffffffff6147a616565b949350505050565b6103e881565b607081565b61012c81565b61012c420490565b6060825b6001600160a01b038516600090815260046020526040902054612f1b9061ffff86860116614b98565b8161ffff16101561305c5761305261304586612f8d88612f88600460008c6001600160a01b03166001600160a01b031681526020019081526020016000208761ffff1681548110612f6857fe5b600091825260209091206002909102015462010000900461ffff16611f34565b612dac565b6001600160a01b0389166000908152600460205260409020805461ffff8716908110612fb557fe5b60009182526020918290206040805160e0810182526002909302909101805461ffff8082168552620100008204169484019490945263ffffffff600160201b8504811692840192909252600160401b840490911660608301526001600160801b03600160601b909304831660808301526001015480831660a0830152600160801b900490911660c0820152614bae565b839063ffffffff61348916565b9150600101612ef2565b509392505050565b60408051600160e01b63b3129e1f028152600e60048201526001600160a01b0383166024820152905160009173__IdToAddressBiMap______________________9163b3129e1f91604480820192602092909190829003018186803b158015611f9757600080fd5b6130d633846131d6565b156130e5576130e53384613254565b6130ed612ee6565b63ffffffff168163ffffffff16101561313a57604051600160e51b62461bcd028152600401808060200182810382526022815260200180615ac06022913960400191505060405180910390fd5b60408051808201825283815263ffffffff83811660208084018281523360008181528084528781206001600160a01b038c16808352908552908890209651600388015591516004909601805463ffffffff19169690951695909517909355845187815290810191909152835191937f2c6245af506f0fc1089918c02c1d01bde9cc807609b334b3e7644d6dfb5a6c5e92918290030190a3505050565b60006131e0612ee6565b6001600160a01b038085166000908152602081815260408083209387168352929052206004015463ffffffff91821691161080156129d05750506001600160a01b0391821660009081526020818152604080832093909416825291909152206004015463ffffffff16151590565b60025481565b61325e8282614a75565b613266612ee6565b6001600160a01b038084166000908152602081815260408083209386168352929052206004015463ffffffff9182169116106132d657604051600160e51b62461bcd0281526004018080602001828103825260268152602001806159c06026913960400191505060405180910390fd5b6132de612ee6565b6001600160a01b0380841660009081526001602090815260408083209386168352929052205463ffffffff91821691161061334d57604051600160e51b62461bcd0281526004018080602001828103825260458152602001806158ba6045913960600191505060405180910390fd5b6001600160a01b03828116600090815260208181526040808320938516835292905290812080546003909101546133849190614b98565b6001600160a01b03808516600090815260208181526040808320938716835292905220549091506133bb908263ffffffff6147a616565b6001600160a01b0384811660009081526020818152604080832093871683529290529081209182556003820155600401805463ffffffff19169055613401828483614dc0565b816001600160a01b0316836001600160a01b03167f9b1bfa7fa9ee420a16e124f794c35ac9f90472acc99140eb2f6447c714cad8eb836040518082815260200191505060405180910390a3505050565b601e81565b60006001613462612ee6565b60065463ffffffff908116929091031614156134815750600b546112d2565b5060006112d2565b6060806040519050835180825260208201818101602087015b818310156134ba5780518352602092830192016134a2565b50855184518101855292509050808201602086015b818310156134e75780518352602092830192016134cf565b508651929092011591909101601f01601f191660405250905092915050565b60408051600160e01b63ab8978b7028152600e600482015261ffff88166024820152905160009173__IdToAddressBiMap______________________9163ab8978b791604480820192602092909190829003018186803b15801561356957600080fd5b505af415801561357d573d6000803e3d6000fd5b505050506040513d602081101561359357600080fd5b50516135e95760408051600160e51b62461bcd02815260206004820152601860248201527f42757920746f6b656e206d757374206265206c69737465640000000000000000604482015290519081900360640190fd5b60408051600160e01b63ab8978b7028152600e600482015261ffff88166024820152905173__IdToAddressBiMap______________________9163ab8978b7916044808301926020929190829003018186803b15801561364857600080fd5b505af415801561365c573d6000803e3d6000fd5b505050506040513d602081101561367257600080fd5b50516136c85760408051600160e51b62461bcd02815260206004820152601960248201527f53656c6c20746f6b656e206d757374206265206c697374656400000000000000604482015290519081900360640190fd5b8561ffff168761ffff1614156137285760408051600160e51b62461bcd02815260206004820152601c60248201527f45786368616e676520746f6b656e73206e6f742064697374696e637400000000604482015290519081900360640190fd5b613730612ee6565b63ffffffff168563ffffffff16101561377d57604051600160e51b62461bcd02815260040180806020018281038252602281526020018061592b6022913960400191505060405180910390fd5b60046000336001600160a01b03166001600160a01b031681526020019081526020016000206040518060e001604052808961ffff1681526020018861ffff1681526020018763ffffffff1681526020018663ffffffff168152602001856001600160801b03168152602001846001600160801b0316815260200160006001600160801b03168152509080600181540180825580915050906001820390600052602060002090600202016000909192909190915060008201518160000160006101000a81548161ffff021916908361ffff16021790555060208201518160000160026101000a81548161ffff021916908361ffff16021790555060408201518160000160046101000a81548163ffffffff021916908363ffffffff16021790555060608201518160000160086101000a81548163ffffffff021916908363ffffffff160217905550608082015181600001600c6101000a8154816001600160801b0302191690836001600160801b0316021790555060a08201518160010160006101000a8154816001600160801b0302191690836001600160801b0316021790555060c08201518160010160106101000a8154816001600160801b0302191690836001600160801b031602179055505050506000613984600160046000336001600160a01b03166001600160a01b031681526020019081526020016000208054905003614e15565b6040805161ffff808416825263ffffffff808b1660208401528916828401526001600160801b038089166060840152871660808301529151929350818a1692918b169133917fdecf6fde8243981299f7b7a776f29a9fc67a2c9848e25d77c50eb11fa58a7e21919081900360a00190a460408051600160e11b634743bd03028152600c6004820152336024820152905173__IterableAppendOnlySet_________________91638e877a06916044808301926020929190829003018186803b158015613a4f57600080fd5b505af4158015613a63573d6000803e3d6000fd5b505050506040513d6020811015613a7957600080fd5b509098975050505050505050565b6000613aa26065613a96613456565b9063ffffffff61423616565b613ab383606463ffffffff61423616565b1192915050565b6000805b8251811015613b08576127106001600160801b0316838281518110613adf57fe5b60200260200101516001600160801b03161015613b00576000915050611fc6565b600101613abe565b50600192915050565b600060015b8251811015613b0857826001820381518110613b2e57fe5b602002602001015161ffff16838281518110613b4657fe5b602002602001015161ffff1611613b61576000915050611fc6565b600101613b16565b6000613b73614e5f565b613bf857600354600a5460408051600160e01b634417f4db028152306004820152602481019290925251620100009092046001600160a01b031691634417f4db9160448082019260009290919082900301818387803b158015613bd557600080fd5b505af1158015613be9573d6000803e3d6000fd5b5050600a5492506112d2915050565b50600090565b613c06614e5f565b15613fcb5760005b600754811015613d9b57600060066001018281548110613c2a57fe5b60009182526020822060029091020154600780546001600160a01b0390921693509084908110613c5657fe5b906000526020600020906002020160010160109054906101000a900461ffff169050613c80615643565b6001600160a01b0383166000908152600460205260409020805461ffff8416908110613ca857fe5b600091825260208083206040805160e0810182526002909402909101805461ffff8082168652620100008204169385019390935263ffffffff600160201b8404811692850192909252600160401b830490911660608401526001600160801b03600160601b909204821660808401526001015480821660a0840152600160801b90041660c082015260078054919350613d689187908110613d4557fe5b60009182526020909120600160029092020101546001600160801b031683614125565b915050613d8b84613d7c8460200151611f34565b836001600160801b0316614e81565b505060019092019150613c0e9050565b5060005b600754811015613fa857600060066001018281548110613dbb57fe5b60009182526020822060029091020154600780546001600160a01b0390921693509084908110613de757fe5b906000526020600020906002020160010160109054906101000a900461ffff169050613e11615643565b6001600160a01b0383166000908152600460205260409020805461ffff8416908110613e3957fe5b600091825260208083206040805160e0810182526002909402909101805461ffff8082168652620100008204169385019390935263ffffffff600160201b8404811692850192909252600160401b830490911660608401526001600160801b03600160601b909204821660808401526001015480821660a0840152600160801b90041660c0820152600780549193508291613efc919088908110613ed957fe5b60009182526020909120600160029092020101546001600160801b031684614125565b91509150613f0b858583614eee565b613f2b85613f1c8560000151611f34565b846001600160801b0316614f8e565b60208084015184516040805161ffff92831681526001600160801b0380871695820195909552938616848201525191811692908716916001600160a01b038916917fb7214f648cea2a7c47aaea7e7aafef610de8d04366d26f66879d076516964eae919081900360600190a4505060019093019250613d9f915050565b50600954613fcb906001600160a01b0316613fc36000611f34565b600a54614f8e565b565b60005b6008548110156140465760006005600060066002018481548110613ff057fe5b60009182526020808320601083040154600f9092166002026101000a90910461ffff168352820192909252604001902080546001600160801b0319166001600160801b0392909216919091179055600101613fd0565b5060005b81518110156125d45782818151811061405f57fe5b60200260200101516005600084848151811061407757fe5b60209081029190910181015161ffff16825281019190915260400160002080546001600160801b0319166001600160801b039290921691909117905560010161404a565b606081516001016040519080825280602002602001820160405280156140eb578160200160208202803883390190505b5092915050565b60008163ffffffff16836040015163ffffffff16111580156129d057505060609091015163ffffffff9182169116101590565b805161ffff9081166000908152600560209081526040808320549185015190931682529181205490918291829161416a9187916001600160801b039081169116614fcc565b94959350505050565b600061417f8685615003565b9050600061418d8686615003565b90506141be846001600160801b03168984815181106141a857fe5b60200260200101516150ec90919063ffffffff16565b8883815181106141ca57fe5b602002602001018181525050614205836001600160801b03168983815181106141ef57fe5b602002602001015161515490919063ffffffff16565b88828151811061421157fe5b6020026020010181815250505050505050505050565b60c081015160a0909101510390565b60008261424557506000612253565b8282028284828161425257fe5b04146129d057604051600160e51b62461bcd02815260040180806020018281038252602181526020018061597e6021913960400191505060405180910390fd5b6080810151815161ffff90811660009081526005602090815260408083205491860151909316825291812054909283926142f7926001600160801b03928316926142e29289929082169116614fcc565b6001600160801b03169063ffffffff61423616565b835161ffff1660009081526005602052604081205460a08601519293509091614352916001600160801b0390811691613a969161433c9187911663ffffffff6151bc16565b6001600160801b0389169063ffffffff6147a616565b60a085018051865161ffff166000908152600560205260408120549251939450926143a9926001600160801b039283169261439d9291811691613a969189911663ffffffff6151fe16565b9063ffffffff6151bc16565b90506143bb828263ffffffff6147a616565b9695505050505050565b6000828201838110156129d05760408051600160e51b62461bcd02815260206004820152601b60248201527f536166654d6174683a206164646974696f6e206f766572666c6f770000000000604482015290519081900360640190fd5b6001600160a01b038316600090815260046020526040902080546144df919061ffff851690811061444f57fe5b60009182526020918290206040805160e0810182526002909302909101805461ffff8082168552620100008204169484019490945263ffffffff600160201b8504811692840192909252600160401b840490911660608301526001600160801b03600160601b909304831660808301526001015480831660a0830152600160801b900490911660c0820152615240565b156125d457614557614552826001600160801b031660046000876001600160a01b03166001600160a01b031681526020019081526020016000208561ffff168154811061452857fe5b6000918252602090912060029091020160010154600160801b90046001600160801b0316906143c5565b61527a565b6001600160a01b0384166000908152600460205260409020805461ffff851690811061457f57fe5b906000526020600020906002020160010160106101000a8154816001600160801b0302191690836001600160801b03160217905550505050565b6145c383836131d6565b1561460e576145d0612ee6565b6001600160a01b038481166000908152600160209081526040808320938716835292905220805463ffffffff191663ffffffff929092169190911790555b6125d4838383614e81565b6146238383612dac565b81111561467a5760408051600160e51b62461bcd02815260206004820152601e60248201527f416d6f756e742065786365656473207573657227732062616c616e63652e0000604482015290519081900360640190fd5b6125d4838383614f8e565b6000806146b361469485614227565b6001600160801b03166146ae85612f888860200151611f34565b614b98565b60a085015160208087015161ffff16600090815260059091526040812054929350916146f1916001600160801b03918216911663ffffffff61423616565b855161ffff166000908152600560205260408120546080880151929350909161473c916103e79161439d916103e891613a96916001600160801b03918216911663ffffffff61423616565b905060008183111561475b57614758838363ffffffff6147a616565b90505b60a087015161477d906001600160801b031661439d868463ffffffff61423616565b979650505050505050565b60008160008151811061479757fe5b60200260200101519050919050565b60006129d083836040518060400160405280601e81526020017f536166654d6174683a207375627472616374696f6e206f766572666c6f7700008152506152c1565b6147f181613a87565b61482f57604051600160e51b62461bcd02815260040180806020018281038252603b815260200180615808603b913960400191505060405180910390fd5b600b55565b600a81905561484d336148476000611f34565b836145b9565b50565b60008160008151811061485f57fe5b6020026020010151136148a657604051600160e51b62461bcd028152600401808060200182810382526029815260200180615a256029913960400191505060405180910390fd5b60015b8151811015611fdd578181815181106148be57fe5b602002602001015160001461491d5760408051600160e51b62461bcd02815260206004820181905260248201527f546f6b656e20636f6e736572766174696f6e20646f6573206e6f7420686f6c64604482015290519081900360640190fd5b6001016148a9565b6006805463ffffffff191663ffffffff871617905560005b8451811015614a47576006600101604051806060016040528087848151811061496257fe5b60200260200101516001600160a01b0316815260200185848151811061498457fe5b60200260200101516001600160801b031681526020018684815181106149a657fe5b60209081029190910181015161ffff908116909252835460018082018655600095865294829020845160029092020180546001600160a01b0319166001600160a01b039092169190911781559083015190840180546040909401516001600160801b03199094166001600160801b039092169190911771ffff000000000000000000000000000000001916600160801b93909216929092021790550161493d565b508051614a5b906008906020840190615696565b5050600980546001600160a01b0319163317905550505050565b6001600160a01b038083166000908152602081815260408083209385168352929052206002015463ffffffff168015801590614abd5750614ab4612ee6565b63ffffffff1681105b156125d4576001600160a01b0383811660009081526020818152604080832093861683529290522060018101549054614af5916143c5565b6001600160a01b0393841660009081526020818152604080832095909616825293909352928220928355506001820155600201805463ffffffff19169055565b604080516001600160a01b0385811660248301528416604482015260648082018490528251808303909101815260849091019091526020810180516001600160e01b0316600160e01b6323b872dd02179052614b9290859061535b565b50505050565b6000818310614ba757816129d0565b5090919050565b604080516001600160a01b03851660601b6020820152815180820360140181526034820183526054808301869052835180840390910181526074909201909252614bff90829063ffffffff61348916565b82516040805161ffff90921660f01b60208301528051808303600201815260229092019052909150614c3890829063ffffffff61348916565b9050614c7b8260200151604051602001808261ffff1661ffff1660f01b81526002019150506040516020818303038152906040528261348990919063ffffffff16565b604080840151815163ffffffff91821660e01b6020820152825180820360040181526024909101909252919250614cb59183919061348916565b60608301516040805163ffffffff92831660e01b6020820152815180820360040181526024909101909152919250614cef91839161348916565b9050614d3c826080015160405160200180826001600160801b03166001600160801b031660801b81526010019150506040516020818303038152906040528261348990919063ffffffff16565b60a0830151604080516001600160801b0390921660801b60208301528051808303601001815260309092019052909150614d7d90829063ffffffff61348916565b9050612ecd614d8b83614227565b604080516001600160801b0390921660801b60208301528051808303601001815260309092019052829063ffffffff61348916565b604080516001600160a01b038416602482015260448082018490528251808303909101815260649091019091526020810180516001600160e01b0316600160e01b63a9059cbb021790526125d490849061535b565b6000620100008210614e5b57604051600160e51b62461bcd02815260040180806020018281038252602681526020018061579c6026913960400191505060405180910390fd5b5090565b60006001614e6b612ee6565b60065463ffffffff908116929091031614905090565b614e8b8383614a75565b6001600160a01b0380841660009081526020818152604080832093861683529290522054614ebf908263ffffffff6143c516565b6001600160a01b0393841660009081526020818152604080832095909616825293909352929091209190915550565b6001600160a01b03831660009081526004602052604090208054614f1b919061ffff851690811061444f57fe5b156125d457614557614552826001600160801b031660046000876001600160a01b03166001600160a01b031681526020019081526020016000208561ffff1681548110614f6457fe5b6000918252602090912060029091020160010154600160801b90046001600160801b0316906147a6565b614f988383614a75565b6001600160a01b0380841660009081526020818152604080832093861683529290522054614ebf908263ffffffff6147a616565b6000612ecd6145526001600160801b038085169061439d906103e890613a96906103e79084908c8116908c1663ffffffff61423616565b600061ffff831661501657506000612253565b8151600090600019015b81811061509c57600060028383010490508561ffff1685828151811061504257fe5b602002602001015161ffff161415615061576001019250612253915050565b8561ffff1685828151811061507257fe5b602002602001015161ffff16101561508f57806001019250615096565b6001810391505b50615020565b60408051600160e51b62461bcd02815260206004820152601c60248201527f5072696365206e6f742070726f766964656420666f7220746f6b656e00000000604482015290519081900360640190fd5b60008183038183128015906151015750838113155b80615116575060008312801561511657508381135b6129d057604051600160e51b62461bcd028152600401808060200182810382526024815260200180615a726024913960400191505060405180910390fd5b60008282018183128015906151695750838112155b8061517e575060008312801561517e57508381125b6129d057604051600160e51b62461bcd02815260040180806020018281038252602181526020018061586a6021913960400191505060405180910390fd5b60006129d083836040518060400160405280601a81526020017f536166654d6174683a206469766973696f6e206279207a65726f00000000000081525061551c565b60006129d083836040518060400160405280601881526020017f536166654d6174683a206d6f64756c6f206279207a65726f0000000000000000815250615584565b60006000196001600160801b031682608001516001600160801b03161415801561225357505060a001516001600160801b03908116141590565b6000600160801b8210614e5b57604051600160e51b62461bcd0281526004018080602001828103825260278152602001806158436027913960400191505060405180910390fd5b6000818484111561535357604051600160e51b62461bcd0281526004018080602001828103825283818151815260200191508051906020019080838360005b83811015615318578181015183820152602001615300565b50505050905090810190601f1680156153455780820380516001836020036101000a031916815260200191505b509250505060405180910390fd5b505050900390565b61536d826001600160a01b03166155e9565b6153c15760408051600160e51b62461bcd02815260206004820152601f60248201527f5361666545524332303a2063616c6c20746f206e6f6e2d636f6e747261637400604482015290519081900360640190fd5b60006060836001600160a01b0316836040518082805190602001908083835b602083106153ff5780518252601f1990920191602091820191016153e0565b6001836020036101000a0380198251168184511680821785525050505050509050019150506000604051808303816000865af19150503d8060008114615461576040519150601f19603f3d011682016040523d82523d6000602084013e615466565b606091505b5091509150816154c05760408051600160e51b62461bcd02815260206004820181905260248201527f5361666545524332303a206c6f772d6c6576656c2063616c6c206661696c6564604482015290519081900360640190fd5b805115614b92578080602001905160208110156154dc57600080fd5b5051614b9257604051600160e51b62461bcd02815260040180806020018281038252602a815260200180615a96602a913960400191505060405180910390fd5b6000818361556e57604051600160e51b62461bcd028152602060048201818152835160248401528351909283926044909101919085019080838360008315615318578181015183820152602001615300565b50600083858161557a57fe5b0495945050505050565b600081836155d657604051600160e51b62461bcd028152602060048201818152835160248401528351909283926044909101919085019080838360008315615318578181015183820152602001615300565b508284816155e057fe5b06949350505050565b6000813f7fc5d2460186f7233c927e7db2dcc703c0e500b653ca82273b7bfad8045d85a470818114801590612ecd575050151592915050565b508054600082556002029060005260206000209081019061484d919061573b565b6040805160e081018252600080825260208201819052918101829052606081018290526080810182905260a0810182905260c081019190915290565b604080518082019091526000808252602082015290565b82805482825590600052602060002090600f0160109004810192821561572f5791602002820160005b838211156156ff57835183826101000a81548161ffff021916908361ffff16021790555092602001926002016020816001010492830192600103026156bf565b801561572d5782816101000a81549061ffff02191690556002016020816001010492830192600103026156ff565b505b50614e5b92915061577c565b6112d291905b80821115614e5b5780546001600160a01b031916815560018101805471ffffffffffffffffffffffffffffffffffff19169055600201615741565b6112d291905b80821115614e5b57805461ffff1916815560010161578256fe53616665436173743a2076616c756520646f65736e27742066697420696e203136206269747362757920616d6f756e74206c657373207468616e20414d4f554e545f4d494e494d554d536f6c7574696f6e2065786365656473204d41585f544f55434845445f4f52444552534e6577206f626a65637469766520646f65736e27742073756666696369656e746c7920696d70726f76652063757272656e7420736f6c7574696f6e53616665436173743a2076616c756520646f65736e27742066697420696e2031323820626974735369676e6564536166654d6174683a206164646974696f6e206f766572666c6f77536f6c7574696f6e7320617265206e6f206c6f6e67657220616363657074656420666f7220746869732062617463685769746864726177206e6f7420706f737369626c6520666f7220746f6b656e20746861742069732074726164656420696e207468652063757272656e742061756374696f6e4174206c65617374206f6e65207072696365206c6f776572207468616e20414d4f554e545f4d494e494d554d4f72646572732063616e277420626520706c6163656420696e207468652070617374657865637574656453656c6c416d6f756e7420626967676572207468616e2073706563696669656420696e206f72646572536166654d6174683a206d756c7469706c69636174696f6e206f766572666c6f7770726963657320617265206e6f74206f72646572656420627920746f6b656e4964776974686472617720776173206e6f7420726567697374657265642070726576696f75736c79436c61696d6564206f626a65637469766520646f65736e27742073756666696369656e746c7920696d70726f76652063757272656e7420736f6c7574696f6e546f6b656e20636f6e736572766174696f6e2061742030206d75737420626520706f7369746976652e73656c6c20616d6f756e74206c657373207468616e20414d4f554e545f4d494e494d554d5369676e6564536166654d6174683a207375627472616374696f6e206f766572666c6f775361666545524332303a204552433230206f7065726174696f6e20646964206e6f742073756363656564526571756573742063616e6e6f74206265206d61646520696e207468652070617374a165627a7a7230582092918d40fc1d7b2912c188aedfeded69efa2018e2009f51a6f551079f19df7c70029",
  "source": "pragma solidity ^0.5.0;\n\nimport \"./EpochTokenLocker.sol\";\nimport \"@gnosis.pm/solidity-data-structures/contracts/libraries/IdToAddressBiMap.sol\";\nimport \"@gnosis.pm/solidity-data-structures/contracts/libraries/IterableAppendOnlySet.sol\";\nimport \"@gnosis.pm/owl-token/contracts/TokenOWL.sol\";\nimport \"openzeppelin-solidity/contracts/utils/SafeCast.sol\";\nimport \"solidity-bytes-utils/contracts/BytesLib.sol\";\nimport \"./libraries/TokenConservation.sol\";\n\n\n/** @title BatchExchange - A decentralized exchange for any ERC20 token as a multi-token batch\n *  auction with uniform clearing prices.\n *  For more information visit: <https://github.com/gnosis/dex-contracts>\n *  @author @gnosis/dfusion-team <https://github.com/orgs/gnosis/teams/dfusion-team/members>\n */\ncontract BatchExchange is EpochTokenLocker {\n    using SafeCast for uint256;\n    using SafeMath for uint128;\n    using BytesLib for bytes32;\n    using BytesLib for bytes;\n    using TokenConservation for int256[];\n    using TokenConservation for uint16[];\n    using IterableAppendOnlySet for IterableAppendOnlySet.Data;\n\n    /** @dev Maximum number of touched orders in auction (used in submitSolution) */\n    uint256 public constant MAX_TOUCHED_ORDERS = 30;\n\n    /** @dev Fee charged for adding a token */\n    uint256 public constant FEE_FOR_LISTING_TOKEN_IN_OWL = 10 ether;\n\n    /** @dev minimum allowed value (in WEI) of any prices or executed trade amounts */\n    uint128 public constant AMOUNT_MINIMUM = 10**4;\n\n    /** @dev Numerator or denominator used in orders, which do not track its usedAmount*/\n    uint128 public constant UNLIMITED_ORDER_AMOUNT = uint128(-1);\n\n    /** Corresponds to percentage that competing solution must improve on current\n     * (p = IMPROVEMENT_DENOMINATOR + 1 / IMPROVEMENT_DENOMINATOR)\n     */\n    uint256 public constant IMPROVEMENT_DENOMINATOR = 100; // 1%\n\n    /** @dev A fixed integer used to evaluate fees as a fraction of trade execution 1/FEE_DENOMINATOR */\n    uint128 public constant FEE_DENOMINATOR = 1000;\n\n    /** @dev The number of bytes a single auction element is serialized into */\n    uint128 public constant ENCODED_AUCTION_ELEMENT_WIDTH = 112;\n\n    /** @dev maximum number of tokens that can be listed for exchange */\n    // solhint-disable-next-line var-name-mixedcase\n    uint256 public MAX_TOKENS;\n\n    /** @dev Current number of tokens listed/available for exchange */\n    uint16 public numTokens;\n\n    /** @dev The feeToken of the exchange will be the OWL Token */\n    TokenOWL public feeToken;\n\n    /** @dev mapping of type userAddress -> List[Order] where all the user's orders are stored */\n    mapping(address => Order[]) public orders;\n\n    /** @dev mapping of type tokenId -> curentPrice of tokenId */\n    mapping(uint16 => uint128) public currentPrices;\n\n    /** @dev Sufficient information for current winning auction solution */\n    SolutionData public latestSolution;\n\n    // Iterable set of all users, required to collect auction information\n    IterableAppendOnlySet.Data private allUsers;\n    IdToAddressBiMap.Data private registeredTokens;\n\n    struct Order {\n        uint16 buyToken;\n        uint16 sellToken;\n        uint32 validFrom; // order is valid from auction collection period: validFrom inclusive\n        uint32 validUntil; // order is valid till auction collection period: validUntil inclusive\n        uint128 priceNumerator;\n        uint128 priceDenominator;\n        uint128 usedAmount; // remainingAmount = priceDenominator - usedAmount\n    }\n\n    struct TradeData {\n        address owner;\n        uint128 volume;\n        uint16 orderId;\n    }\n\n    struct SolutionData {\n        uint32 batchId;\n        TradeData[] trades;\n        uint16[] tokenIdsForPrice;\n        address solutionSubmitter;\n        uint256 feeReward;\n        uint256 objectiveValue;\n    }\n\n    event OrderPlacement(\n        address indexed owner,\n        uint16 index,\n        uint16 indexed buyToken,\n        uint16 indexed sellToken,\n        uint32 validFrom,\n        uint32 validUntil,\n        uint128 priceNumerator,\n        uint128 priceDenominator\n    );\n\n    event TokenListing(address token, uint16 id);\n\n    /** @dev Event emitted when an order is cancelled but still valid in the batch that is\n     * currently being solved. It remains in storage but will not be tradable in any future\n     * batch to be solved.\n     */\n    event OrderCancellation(address indexed owner, uint16 id);\n\n    /** @dev Event emitted when an order is removed from storage.\n     */\n    event OrderDeletion(address indexed owner, uint16 id);\n\n    /** @dev Event emitted when a new trade is settled\n     */\n    event Trade(\n        address indexed owner,\n        uint16 indexed orderId,\n        uint16 indexed sellToken,\n        // Solidity only supports three indexed arguments\n        uint16 buyToken,\n        uint128 executedSellAmount,\n        uint128 executedBuyAmount\n    );\n\n    /** @dev Event emitted when an already exectued trade gets reverted\n     */\n    event TradeReversion(\n        address indexed owner,\n        uint16 indexed orderId,\n        uint16 indexed sellToken,\n        // Solidity only supports three indexed arguments\n        uint16 buyToken,\n        uint128 executedSellAmount,\n        uint128 executedBuyAmount\n    );\n\n    /** @dev Event emitted for each solution that is submitted\n     */\n    event SolutionSubmission(\n        address indexed submitter,\n        uint256 utility,\n        uint256 disregardedUtility,\n        uint256 burntFees,\n        uint256 lastAuctionBurntFees,\n        uint128[] prices,\n        uint16[] tokenIdsForPrice\n    );\n\n    /** @dev Constructor determines exchange parameters\n     * @param maxTokens The maximum number of tokens that can be listed.\n     * @param _feeToken Address of ERC20 fee token.\n     */\n    constructor(uint256 maxTokens, address _feeToken) public {\n        // All solutions for the batches must have normalized prices. The following line sets the\n        // price of OWL to 10**18 for all solutions and hence enforces a normalization.\n        currentPrices[0] = 1 ether;\n        MAX_TOKENS = maxTokens;\n        feeToken = TokenOWL(_feeToken);\n        // The burn functionallity of OWL requires an approval.\n        // In the following line the approval is set for all future burn calls.\n        feeToken.approve(address(this), uint256(-1));\n        addToken(_feeToken); // feeToken will always have the token index 0\n    }\n\n    /** @dev Used to list a new token on the contract: Hence, making it available for exchange in an auction.\n     * @param token ERC20 token to be listed.\n     *\n     * Requirements:\n     * - `maxTokens` has not already been reached\n     * - `token` has not already been added\n     */\n    function addToken(address token) public {\n        require(numTokens < MAX_TOKENS, \"Max tokens reached\");\n        if (numTokens > 0) {\n            // Only charge fees for tokens other than the fee token itself\n            feeToken.burnOWL(msg.sender, FEE_FOR_LISTING_TOKEN_IN_OWL);\n        }\n        require(IdToAddressBiMap.insert(registeredTokens, numTokens, token), \"Token already registered\");\n        emit TokenListing(token, numTokens);\n        numTokens++;\n    }\n\n    /** @dev A user facing function used to place limit sell orders in auction with expiry defined by batchId\n     * @param buyToken id of token to be bought\n     * @param sellToken id of token to be sold\n     * @param validUntil batchId representing order's expiry\n     * @param buyAmount relative minimum amount of requested buy amount\n     * @param sellAmount maximum amount of sell token to be exchanged\n     * @return orderId defined as the index in user's order array\n     *\n     * Emits an {OrderPlacement} event with all relevant order details.\n     */\n    function placeOrder(uint16 buyToken, uint16 sellToken, uint32 validUntil, uint128 buyAmount, uint128 sellAmount)\n        public\n        returns (uint256)\n    {\n        return placeOrderInternal(buyToken, sellToken, getCurrentBatchId(), validUntil, buyAmount, sellAmount);\n    }\n\n    /** @dev A user facing function used to place limit sell orders in auction with expiry defined by batchId\n     * Note that parameters are passed as arrays and the indices correspond to each order.\n     * @param buyTokens ids of tokens to be bought\n     * @param sellTokens ids of tokens to be sold\n     * @param validFroms batchIds representing order's validity start time\n     * @param validUntils batchIds representing order's expiry\n     * @param buyAmounts relative minimum amount of requested buy amounts\n     * @param sellAmounts maximum amounts of sell token to be exchanged\n     * @return `orderIds` an array of indices in which `msg.sender`'s orders are included\n     *\n     * Emits an {OrderPlacement} event with all relevant order details.\n     */\n    function placeValidFromOrders(\n        uint16[] memory buyTokens,\n        uint16[] memory sellTokens,\n        uint32[] memory validFroms,\n        uint32[] memory validUntils,\n        uint128[] memory buyAmounts,\n        uint128[] memory sellAmounts\n    ) public returns (uint16[] memory orderIds) {\n        orderIds = new uint16[](buyTokens.length);\n        for (uint256 i = 0; i < buyTokens.length; i++) {\n            orderIds[i] = placeOrderInternal(\n                buyTokens[i],\n                sellTokens[i],\n                validFroms[i],\n                validUntils[i],\n                buyAmounts[i],\n                sellAmounts[i]\n            );\n        }\n    }\n\n    /** @dev a user facing function used to cancel orders. If the order is valid for the batch that is currently\n     * being solved, it sets order expiry to that batchId. Otherwise it removes it from storage. Can be called\n     * multiple times (e.g. to eventually free storage once order is expired).\n     *\n     * @param orderIds referencing the indices of user's orders to be cancelled\n     *\n     * Emits an {OrderCancellation} or {OrderDeletion} with sender's address and orderId\n     */\n    function cancelOrders(uint16[] memory orderIds) public {\n        uint32 batchIdBeingSolved = getCurrentBatchId() - 1;\n        for (uint16 i = 0; i < orderIds.length; i++) {\n            if (!checkOrderValidity(orders[msg.sender][orderIds[i]], batchIdBeingSolved)) {\n                delete orders[msg.sender][orderIds[i]];\n                emit OrderDeletion(msg.sender, orderIds[i]);\n            } else {\n                orders[msg.sender][orderIds[i]].validUntil = batchIdBeingSolved;\n                emit OrderCancellation(msg.sender, orderIds[i]);\n            }\n        }\n    }\n\n    /** @dev A user facing wrapper to cancel and place new orders in the same transaction.\n     * @param cancellations indices of orders to be cancelled\n     * @param buyTokens ids of tokens to be bought in new orders\n     * @param sellTokens ids of tokens to be sold in new orders\n     * @param validFroms batchIds representing order's validity start time in new orders\n     * @param validUntils batchIds represnnting order's expiry in new orders\n     * @param buyAmounts relative minimum amount of requested buy amounts in new orders\n     * @param sellAmounts maximum amounts of sell token to be exchanged in new orders\n     * @return an array of indices in which `msg.sender`'s new orders are included\n     *\n     * Emits {OrderCancellation} events for all cancelled orders and {OrderPlacement} events with relevant new order details.\n     */\n    function replaceOrders(\n        uint16[] memory cancellations,\n        uint16[] memory buyTokens,\n        uint16[] memory sellTokens,\n        uint32[] memory validFroms,\n        uint32[] memory validUntils,\n        uint128[] memory buyAmounts,\n        uint128[] memory sellAmounts\n    ) public returns (uint16[] memory) {\n        cancelOrders(cancellations);\n        return placeValidFromOrders(buyTokens, sellTokens, validFroms, validUntils, buyAmounts, sellAmounts);\n    }\n\n    /** @dev a solver facing function called for auction settlement\n     * @param batchId index of auction solution is referring to\n     * @param owners array of addresses corresponding to touched orders\n     * @param orderIds array of order indices used in parallel with owners to identify touched order\n     * @param buyVolumes executed buy amounts for each order identified by index of owner-orderId arrays\n     * @param prices list of prices for touched tokens indexed by next parameter\n     * @param tokenIdsForPrice price[i] is the price for the token with tokenID tokenIdsForPrice[i]\n     * @return the computed objective value of the solution\n     *\n     * Requirements:\n     * - Solutions for this `batchId` are currently being accepted.\n     * - Claimed objetive value is a great enough improvement on the current winning solution\n     * - Fee Token price is non-zero\n     * - `tokenIdsForPrice` is sorted.\n     * - Number of touched orders does not exceed `MAX_TOUCHED_ORDERS`.\n     * - Each touched order is valid at current `batchId`.\n     * - Each touched order's `executedSellAmount` does not exceed its remaining amount.\n     * - Limit Price of each touched order is respected.\n     * - Solution's objective evaluation must be positive.\n     *\n     * Sub Requirements: Those nested within other functions\n     * - checkAndOverrideObjectiveValue; Objetive value is a great enough improvement on the current winning solution\n     * - checkTokenConservation; for all, non-fee, tokens total amount sold == total amount bought\n     */\n    function submitSolution(\n        uint32 batchId,\n        uint256 claimedObjectiveValue,\n        address[] memory owners,\n        uint16[] memory orderIds,\n        uint128[] memory buyVolumes,\n        uint128[] memory prices,\n        uint16[] memory tokenIdsForPrice\n    ) public returns (uint256) {\n        require(acceptingSolutions(batchId), \"Solutions are no longer accepted for this batch\");\n        require(\n            isObjectiveValueSufficientlyImproved(claimedObjectiveValue),\n            \"Claimed objective doesn't sufficiently improve current solution\"\n        );\n        require(verifyAmountThreshold(prices), \"At least one price lower than AMOUNT_MINIMUM\");\n        require(tokenIdsForPrice[0] != 0, \"Fee token has fixed price!\");\n        require(tokenIdsForPrice.checkPriceOrdering(), \"prices are not ordered by tokenId\");\n        require(owners.length <= MAX_TOUCHED_ORDERS, \"Solution exceeds MAX_TOUCHED_ORDERS\");\n        // Further assumptions are: owners.length == orderIds.length && owners.length == buyVolumes.length\n        // && prices.length == tokenIdsForPrice.length\n        // These assumptions are not checked explicitly, as violations of these constraints can not be used\n        // to create a beneficial situation\n        uint256 lastAuctionBurntFees = burnPreviousAuctionFees();\n        undoCurrentSolution();\n        updateCurrentPrices(prices, tokenIdsForPrice);\n        delete latestSolution.trades;\n        int256[] memory tokenConservation = TokenConservation.init(tokenIdsForPrice);\n        uint256 utility = 0;\n        for (uint256 i = 0; i < owners.length; i++) {\n            Order memory order = orders[owners[i]][orderIds[i]];\n            require(checkOrderValidity(order, batchId), \"Order is invalid\");\n            (uint128 executedBuyAmount, uint128 executedSellAmount) = getTradedAmounts(buyVolumes[i], order);\n            require(executedBuyAmount >= AMOUNT_MINIMUM, \"buy amount less than AMOUNT_MINIMUM\");\n            require(executedSellAmount >= AMOUNT_MINIMUM, \"sell amount less than AMOUNT_MINIMUM\");\n            tokenConservation.updateTokenConservation(\n                order.buyToken,\n                order.sellToken,\n                tokenIdsForPrice,\n                executedBuyAmount,\n                executedSellAmount\n            );\n            require(getRemainingAmount(order) >= executedSellAmount, \"executedSellAmount bigger than specified in order\");\n            // Ensure executed price is not lower than the order price:\n            //       executedSellAmount / executedBuyAmount <= order.priceDenominator / order.priceNumerator\n            require(\n                executedSellAmount.mul(order.priceNumerator) <= executedBuyAmount.mul(order.priceDenominator),\n                \"limit price not satisfied\"\n            );\n            // accumulate utility before updateRemainingOrder, but after limitPrice verified!\n            utility = utility.add(evaluateUtility(executedBuyAmount, order));\n            updateRemainingOrder(owners[i], orderIds[i], executedSellAmount);\n            addBalanceAndBlockWithdrawForThisBatch(owners[i], tokenIdToAddressMap(order.buyToken), executedBuyAmount);\n            emit Trade(owners[i], orderIds[i], order.sellToken, order.buyToken, executedSellAmount, executedBuyAmount);\n        }\n        // Perform all subtractions after additions to avoid negative values\n        for (uint256 i = 0; i < owners.length; i++) {\n            Order memory order = orders[owners[i]][orderIds[i]];\n            (, uint128 executedSellAmount) = getTradedAmounts(buyVolumes[i], order);\n            subtractBalance(owners[i], tokenIdToAddressMap(order.sellToken), executedSellAmount);\n        }\n        uint256 disregardedUtility = 0;\n        for (uint256 i = 0; i < owners.length; i++) {\n            disregardedUtility = disregardedUtility.add(evaluateDisregardedUtility(orders[owners[i]][orderIds[i]], owners[i]));\n        }\n        uint256 burntFees = uint256(tokenConservation.feeTokenImbalance()) / 2;\n        // burntFees ensures direct trades (when available) yield better solutions than longer rings\n        uint256 objectiveValue = utility.add(burntFees).sub(disregardedUtility);\n        checkAndOverrideObjectiveValue(objectiveValue);\n        grantRewardToSolutionSubmitter(burntFees);\n        tokenConservation.checkTokenConservation();\n        documentTrades(batchId, owners, orderIds, buyVolumes, tokenIdsForPrice);\n\n        emit SolutionSubmission(\n            msg.sender,\n            utility,\n            disregardedUtility,\n            burntFees,\n            lastAuctionBurntFees,\n            prices,\n            tokenIdsForPrice\n        );\n        return (objectiveValue);\n    }\n\n    /**\n     * Public View Methods\n     */\n    /** @dev View returning ID of listed tokens\n     * @param addr address of listed token.\n     * @return tokenId as stored within the contract.\n     */\n    function tokenAddressToIdMap(address addr) public view returns (uint16) {\n        return IdToAddressBiMap.getId(registeredTokens, addr);\n    }\n\n    /** @dev View returning address of listed token by ID\n     * @param id tokenId as stored, via BiMap, within the contract.\n     * @return address of (listed) token\n     */\n    function tokenIdToAddressMap(uint16 id) public view returns (address) {\n        return IdToAddressBiMap.getAddressAt(registeredTokens, id);\n    }\n\n    /** @dev View returning a bool attesting whether token was already added\n     * @param addr address of the token to be checked\n     * @return bool attesting whether token was already added\n     */\n    function hasToken(address addr) public view returns (bool) {\n        return IdToAddressBiMap.hasAddress(registeredTokens, addr);\n    }\n\n    /** @dev View returning all byte-encoded sell orders for specified user\n     * @param user address of user whose orders are being queried\n     * @param offset uint determining the starting orderIndex\n     * @param pageSize uint determining the count of elements to be viewed\n     * @return encoded bytes representing all orders\n     */\n    function getEncodedUserOrdersPaginated(address user, uint16 offset, uint16 pageSize)\n        public\n        view\n        returns (bytes memory elements)\n    {\n        for (uint16 i = offset; i < Math.min(orders[user].length, offset + pageSize); i++) {\n            elements = elements.concat(\n                encodeAuctionElement(user, getBalance(user, tokenIdToAddressMap(orders[user][i].sellToken)), orders[user][i])\n            );\n        }\n        return elements;\n    }\n\n    /** @dev View returning all byte-encoded users in paginated form\n     * @param previousPageUser address of last user received in last pages (address(0) for first page)\n     * @param pageSize uint determining the count of users to be returned per page\n     * @return encoded packed bytes of user addresses\n     */\n    function getUsersPaginated(address previousPageUser, uint16 pageSize) public view returns (bytes memory users) {\n        if (allUsers.size() == 0) {\n            return users;\n        }\n        uint16 count = 0;\n        address current = previousPageUser;\n        if (current == address(0)) {\n            current = allUsers.first();\n            users = users.concat(abi.encodePacked(current));\n            count++;\n        }\n        while (count < pageSize && current != allUsers.last) {\n            current = allUsers.next(current);\n            users = users.concat(abi.encodePacked(current));\n            count++;\n        }\n        return users;\n    }\n\n    /** @dev View returning all byte-encoded sell orders for specified user\n     * @param user address of user whose orders are being queried\n     * @return encoded bytes representing all orders\n     */\n    function getEncodedUserOrders(address user) public view returns (bytes memory elements) {\n        return getEncodedUserOrdersPaginated(user, 0, uint16(-1));\n    }\n\n    /** @dev View returning byte-encoded sell orders in paginated form\n     * @param previousPageUser address of last user received in the previous page (address(0) for first page)\n     * @param previousPageUserOffset the number of orders received for the last user on the previous page (0 for first page).\n     * @param pageSize uint determining the count of orders to be returned per page\n     * @return encoded bytes representing a page of orders ordered by (user, index)\n     */\n    function getEncodedUsersPaginated(address previousPageUser, uint16 previousPageUserOffset, uint16 pageSize)\n        public\n        view\n        returns (bytes memory elements)\n    {\n        if (allUsers.size() == 0) {\n            return elements;\n        }\n        uint16 currentOffset = previousPageUserOffset;\n        address currentUser = previousPageUser;\n        if (currentUser == address(0x0)) {\n            currentUser = allUsers.first();\n        }\n        while (elements.length / ENCODED_AUCTION_ELEMENT_WIDTH < pageSize) {\n            elements = elements.concat(\n                getEncodedUserOrdersPaginated(\n                    currentUser,\n                    currentOffset,\n                    pageSize - uint16(elements.length / ENCODED_AUCTION_ELEMENT_WIDTH)\n                )\n            );\n            if (currentUser == allUsers.last) {\n                return elements;\n            }\n            currentOffset = 0;\n            currentUser = allUsers.next(currentUser);\n        }\n    }\n\n    /** @dev View returning all byte-encoded sell orders\n     * @return encoded bytes representing all orders ordered by (user, index)\n     */\n    function getEncodedOrders() public view returns (bytes memory elements) {\n        if (allUsers.size() > 0) {\n            address user = allUsers.first();\n            bool stop = false;\n            while (!stop) {\n                elements = elements.concat(getEncodedUserOrders(user));\n                if (user == allUsers.last) {\n                    stop = true;\n                } else {\n                    user = allUsers.next(user);\n                }\n            }\n        }\n        return elements;\n    }\n\n    function acceptingSolutions(uint32 batchId) public view returns (bool) {\n        return batchId == getCurrentBatchId() - 1 && getSecondsRemainingInBatch() >= 1 minutes;\n    }\n\n    /** @dev gets the objective value of currently winning solution.\n     * @return objective function evaluation of the currently winning solution, or zero if no solution proposed.\n     */\n    function getCurrentObjectiveValue() public view returns (uint256) {\n        if (latestSolution.batchId == getCurrentBatchId() - 1) {\n            return latestSolution.objectiveValue;\n        } else {\n            return 0;\n        }\n    }\n\n    /**\n     * Private Functions\n     */\n    function placeOrderInternal(\n        uint16 buyToken,\n        uint16 sellToken,\n        uint32 validFrom,\n        uint32 validUntil,\n        uint128 buyAmount,\n        uint128 sellAmount\n    ) private returns (uint16) {\n        require(IdToAddressBiMap.hasId(registeredTokens, buyToken), \"Buy token must be listed\");\n        require(IdToAddressBiMap.hasId(registeredTokens, sellToken), \"Sell token must be listed\");\n        require(buyToken != sellToken, \"Exchange tokens not distinct\");\n        require(validFrom >= getCurrentBatchId(), \"Orders can't be placed in the past\");\n        orders[msg.sender].push(\n            Order({\n                buyToken: buyToken,\n                sellToken: sellToken,\n                validFrom: validFrom,\n                validUntil: validUntil,\n                priceNumerator: buyAmount,\n                priceDenominator: sellAmount,\n                usedAmount: 0\n            })\n        );\n        uint16 orderId = (orders[msg.sender].length - 1).toUint16();\n        emit OrderPlacement(msg.sender, orderId, buyToken, sellToken, validFrom, validUntil, buyAmount, sellAmount);\n        allUsers.insert(msg.sender);\n        return orderId;\n    }\n\n    /** @dev called at the end of submitSolution with a value of tokenConservation / 2\n     * @param feeReward amount to be rewarded to the solver\n     */\n    function grantRewardToSolutionSubmitter(uint256 feeReward) private {\n        latestSolution.feeReward = feeReward;\n        addBalanceAndBlockWithdrawForThisBatch(msg.sender, tokenIdToAddressMap(0), feeReward);\n    }\n\n    /** @dev called during solution submission to burn fees from previous auction\n     * @return amount of OWL burnt\n     */\n    function burnPreviousAuctionFees() private returns (uint256) {\n        if (!currentBatchHasSolution()) {\n            feeToken.burnOWL(address(this), latestSolution.feeReward);\n            return latestSolution.feeReward;\n        }\n        return 0;\n    }\n\n    /** @dev Called from within submitSolution to update the token prices.\n     * @param prices list of prices for touched tokens only, first price is always fee token price\n     * @param tokenIdsForPrice price[i] is the price for the token with tokenID tokenIdsForPrice[i]\n     */\n    function updateCurrentPrices(uint128[] memory prices, uint16[] memory tokenIdsForPrice) private {\n        for (uint256 i = 0; i < latestSolution.tokenIdsForPrice.length; i++) {\n            currentPrices[latestSolution.tokenIdsForPrice[i]] = 0;\n        }\n        for (uint256 i = 0; i < tokenIdsForPrice.length; i++) {\n            currentPrices[tokenIdsForPrice[i]] = prices[i];\n        }\n    }\n\n    /** @dev Updates an order's remaing requested sell amount upon (partial) execution of a standing order\n     * @param owner order's corresponding user address\n     * @param orderId index of order in list of owner's orders\n     * @param executedAmount proportion of order's requested sellAmount that was filled.\n     */\n    function updateRemainingOrder(address owner, uint16 orderId, uint128 executedAmount) private {\n        if (isOrderWithLimitedAmount(orders[owner][orderId])) {\n            orders[owner][orderId].usedAmount = orders[owner][orderId].usedAmount.add(executedAmount).toUint128();\n        }\n    }\n\n    /** @dev The inverse of updateRemainingOrder, called when reverting a solution in favour of a better one.\n     * @param owner order's corresponding user address\n     * @param orderId index of order in list of owner's orders\n     * @param executedAmount proportion of order's requested sellAmount that was filled.\n     */\n    function revertRemainingOrder(address owner, uint16 orderId, uint128 executedAmount) private {\n        if (isOrderWithLimitedAmount(orders[owner][orderId])) {\n            orders[owner][orderId].usedAmount = orders[owner][orderId].usedAmount.sub(executedAmount).toUint128();\n        }\n    }\n\n    /** @dev Checks whether an order is intended to track its usedAmount\n     * @param order order under inspection\n     * @return true if the given order does track its usedAmount\n     */\n    function isOrderWithLimitedAmount(Order memory order) private pure returns (bool) {\n        return order.priceNumerator != UNLIMITED_ORDER_AMOUNT && order.priceDenominator != UNLIMITED_ORDER_AMOUNT;\n    }\n\n    /** @dev This function writes solution information into contract storage\n     * @param batchId index of referenced auction\n     * @param owners array of addresses corresponding to touched orders\n     * @param orderIds array of order indices used in parallel with owners to identify touched order\n     * @param volumes executed buy amounts for each order identified by index of owner-orderId arrays\n     * @param tokenIdsForPrice price[i] is the price for the token with tokenID tokenIdsForPrice[i]\n     */\n    function documentTrades(\n        uint32 batchId,\n        address[] memory owners,\n        uint16[] memory orderIds,\n        uint128[] memory volumes,\n        uint16[] memory tokenIdsForPrice\n    ) private {\n        latestSolution.batchId = batchId;\n        for (uint256 i = 0; i < owners.length; i++) {\n            latestSolution.trades.push(TradeData({owner: owners[i], orderId: orderIds[i], volume: volumes[i]}));\n        }\n        latestSolution.tokenIdsForPrice = tokenIdsForPrice;\n        latestSolution.solutionSubmitter = msg.sender;\n    }\n\n    /** @dev reverts all relevant contract storage relating to an overwritten auction solution.\n     */\n    function undoCurrentSolution() private {\n        if (currentBatchHasSolution()) {\n            for (uint256 i = 0; i < latestSolution.trades.length; i++) {\n                address owner = latestSolution.trades[i].owner;\n                uint16 orderId = latestSolution.trades[i].orderId;\n                Order memory order = orders[owner][orderId];\n                (, uint128 sellAmount) = getTradedAmounts(latestSolution.trades[i].volume, order);\n                addBalance(owner, tokenIdToAddressMap(order.sellToken), sellAmount);\n            }\n            for (uint256 i = 0; i < latestSolution.trades.length; i++) {\n                address owner = latestSolution.trades[i].owner;\n                uint16 orderId = latestSolution.trades[i].orderId;\n                Order memory order = orders[owner][orderId];\n                (uint128 buyAmount, uint128 sellAmount) = getTradedAmounts(latestSolution.trades[i].volume, order);\n                revertRemainingOrder(owner, orderId, sellAmount);\n                subtractBalanceUnchecked(owner, tokenIdToAddressMap(order.buyToken), buyAmount);\n                emit TradeReversion(owner, orderId, order.sellToken, order.buyToken, sellAmount, buyAmount);\n            }\n            // subtract granted fees:\n            subtractBalanceUnchecked(latestSolution.solutionSubmitter, tokenIdToAddressMap(0), latestSolution.feeReward);\n        }\n    }\n\n    /** @dev determines if value is better than currently and updates if it is.\n     * @param newObjectiveValue proposed value to be updated if a great enough improvement on the current objective value\n     */\n    function checkAndOverrideObjectiveValue(uint256 newObjectiveValue) private {\n        require(\n            isObjectiveValueSufficientlyImproved(newObjectiveValue),\n            \"New objective doesn't sufficiently improve current solution\"\n        );\n        latestSolution.objectiveValue = newObjectiveValue;\n    }\n\n    // Private view\n    /** @dev Evaluates utility of executed trade\n     * @param execBuy represents proportion of order executed (in terms of buy amount)\n     * @param order the sell order whose utility is being evaluated\n     * @return Utility = ((execBuy * order.sellAmt - execSell * order.buyAmt) * price.buyToken) / order.sellAmt\n     */\n    function evaluateUtility(uint128 execBuy, Order memory order) private view returns (uint256) {\n        // Utility = ((execBuy * order.sellAmt - execSell * order.buyAmt) * price.buyToken) / order.sellAmt\n        uint256 execSellTimesBuy = getExecutedSellAmount(execBuy, currentPrices[order.buyToken], currentPrices[order.sellToken])\n            .mul(order.priceNumerator);\n\n        uint256 roundedUtility = execBuy.sub(execSellTimesBuy.div(order.priceDenominator)).mul(currentPrices[order.buyToken]);\n        uint256 utilityError = execSellTimesBuy.mod(order.priceDenominator).mul(currentPrices[order.buyToken]).div(\n            order.priceDenominator\n        );\n        return roundedUtility.sub(utilityError);\n    }\n\n    /** @dev computes a measure of how much of an order was disregarded (only valid when limit price is respected)\n     * @param order the sell order whose disregarded utility is being evaluated\n     * @param user address of order's owner\n     * @return disregardedUtility of the order (after it has been applied)\n     * Note that:\n     * |disregardedUtility| = (limitTerm * leftoverSellAmount) / order.sellAmount\n     * where limitTerm = price.SellToken * order.sellAmt - order.buyAmt * price.buyToken / (1 - phi)\n     * and leftoverSellAmount = order.sellAmt - execSellAmt\n     * Balances and orders have all been updated so: sellAmount - execSellAmt == remainingAmount(order).\n     * For correctness, we take the minimum of this with the user's token balance.\n     */\n    function evaluateDisregardedUtility(Order memory order, address user) private view returns (uint256) {\n        uint256 leftoverSellAmount = Math.min(getRemainingAmount(order), getBalance(user, tokenIdToAddressMap(order.sellToken)));\n        uint256 limitTermLeft = currentPrices[order.sellToken].mul(order.priceDenominator);\n        uint256 limitTermRight = order.priceNumerator.mul(currentPrices[order.buyToken]).mul(FEE_DENOMINATOR).div(\n            FEE_DENOMINATOR - 1\n        );\n        uint256 limitTerm = 0;\n        if (limitTermLeft > limitTermRight) {\n            limitTerm = limitTermLeft.sub(limitTermRight);\n        }\n        return leftoverSellAmount.mul(limitTerm).div(order.priceDenominator);\n    }\n\n    /** @dev Evaluates executedBuy amount based on prices and executedBuyAmout (fees included)\n     * @param executedBuyAmount amount of buyToken executed for purchase in batch auction\n     * @param buyTokenPrice uniform clearing price of buyToken\n     * @param sellTokenPrice uniform clearing price of sellToken\n     * @return executedSellAmount as expressed in Equation (2)\n     * https://github.com/gnosis/dex-contracts/issues/173#issuecomment-526163117\n     * execSellAmount * p[sellToken] * (1 - phi) == execBuyAmount * p[buyToken]\n     * where phi = 1/FEE_DENOMINATOR\n     * Note that: 1 - phi = (FEE_DENOMINATOR - 1) / FEE_DENOMINATOR\n     * And so, 1/(1-phi) = FEE_DENOMINATOR / (FEE_DENOMINATOR - 1)\n     * execSellAmount = (execBuyAmount * p[buyToken]) / (p[sellToken] * (1 - phi))\n     *                = (execBuyAmount * buyTokenPrice / sellTokenPrice) * FEE_DENOMINATOR / (FEE_DENOMINATOR - 1)\n     * in order to minimize rounding errors, the order of operations is switched\n     *                = ((executedBuyAmount * buyTokenPrice) / (FEE_DENOMINATOR - 1)) * FEE_DENOMINATOR) / sellTokenPrice\n     */\n    function getExecutedSellAmount(uint128 executedBuyAmount, uint128 buyTokenPrice, uint128 sellTokenPrice)\n        private\n        pure\n        returns (uint128)\n    {\n        /* solium-disable indentation */\n        return\n            uint256(executedBuyAmount)\n                .mul(buyTokenPrice)\n                .div(FEE_DENOMINATOR - 1)\n                .mul(FEE_DENOMINATOR)\n                .div(sellTokenPrice)\n                .toUint128();\n        /* solium-enable indentation */\n    }\n\n    /** @dev used to determine if solution if first provided in current batch\n     * @return true if `latestSolution` is storing a solution for current batch, else false\n     */\n    function currentBatchHasSolution() private view returns (bool) {\n        return latestSolution.batchId == getCurrentBatchId() - 1;\n    }\n\n    // Private view\n    /** @dev Compute trade execution based on executedBuyAmount and relevant token prices\n     * @param executedBuyAmount executed buy amount\n     * @param order contains relevant buy-sell token information\n     * @return (executedBuyAmount, executedSellAmount)\n     */\n    function getTradedAmounts(uint128 executedBuyAmount, Order memory order) private view returns (uint128, uint128) {\n        uint128 executedSellAmount = getExecutedSellAmount(\n            executedBuyAmount,\n            currentPrices[order.buyToken],\n            currentPrices[order.sellToken]\n        );\n        return (executedBuyAmount, executedSellAmount);\n    }\n\n    /** @dev Checks that the proposed objective value is a significant enough improvement on the latest one\n     * @param objectiveValue the proposed objective value to check\n     * @return true if the objectiveValue is a significant enough improvement, false otherwise\n     */\n    function isObjectiveValueSufficientlyImproved(uint256 objectiveValue) private view returns (bool) {\n        return (objectiveValue.mul(IMPROVEMENT_DENOMINATOR) > getCurrentObjectiveValue().mul(IMPROVEMENT_DENOMINATOR + 1));\n    }\n\n    // Private pure\n    /** @dev used to determine if an order is valid for specific auction/batch\n     * @param order object whose validity is in question\n     * @param batchId auction index of validity\n     * @return true if order is valid in auction batchId else false\n     */\n    function checkOrderValidity(Order memory order, uint32 batchId) private pure returns (bool) {\n        return order.validFrom <= batchId && order.validUntil >= batchId;\n    }\n\n    /** @dev computes the remaining sell amount for a given order\n     * @param order the order for which remaining amount should be calculated\n     * @return the remaining sell amount\n     */\n    function getRemainingAmount(Order memory order) private pure returns (uint128) {\n        return order.priceDenominator - order.usedAmount;\n    }\n\n    /** @dev called only by getEncodedOrders and used to pack auction info into bytes\n     * @param user list of tokenIds\n     * @param sellTokenBalance user's account balance of sell token\n     * @param order a sell order\n     * @return byte encoded, packed, concatenation of relevant order information\n     */\n    function encodeAuctionElement(address user, uint256 sellTokenBalance, Order memory order)\n        private\n        pure\n        returns (bytes memory element)\n    {\n        element = abi.encodePacked(user);\n        element = element.concat(abi.encodePacked(sellTokenBalance));\n        element = element.concat(abi.encodePacked(order.buyToken));\n        element = element.concat(abi.encodePacked(order.sellToken));\n        element = element.concat(abi.encodePacked(order.validFrom));\n        element = element.concat(abi.encodePacked(order.validUntil));\n        element = element.concat(abi.encodePacked(order.priceNumerator));\n        element = element.concat(abi.encodePacked(order.priceDenominator));\n        element = element.concat(abi.encodePacked(getRemainingAmount(order)));\n        return element;\n    }\n\n    /** @dev determines if value is better than currently and updates if it is.\n     * @param amounts array of values to be verified with AMOUNT_MINIMUM\n     */\n    function verifyAmountThreshold(uint128[] memory amounts) private pure returns (bool) {\n        for (uint256 i = 0; i < amounts.length; i++) {\n            if (amounts[i] < AMOUNT_MINIMUM) {\n                return false;\n            }\n        }\n        return true;\n    }\n}\n",
  "sourcePath": "/Users/Hilmar/code/gelato/gnosisStuff/dex-contracts/contracts/BatchExchange.sol",
  "compiler": {
    "name": "solc",
    "version": "0.5.6+commit.b259423e.Emscripten.clang"
  },
  "schemaVersion": "3.0.23",
  "updatedAt": "2020-03-22T10:31:15.101Z",
  "devdoc": {
    "author": "@gnosis/dfusion-team <https://github.com/orgs/gnosis/teams/dfusion-team/members>",
    "methods": {
      "addToken(address)": {
        "details": "Used to list a new token on the contract: Hence, making it available for exchange in an auction.",
        "params": {
          "token": "ERC20 token to be listed.     * Requirements: - `maxTokens` has not already been reached - `token` has not already been added"
        }
      },
      "cancelOrders(uint16[])": {
        "details": "a user facing function used to cancel orders. If the order is valid for the batch that is currently being solved, it sets order expiry to that batchId. Otherwise it removes it from storage. Can be called multiple times (e.g. to eventually free storage once order is expired).",
        "params": {
          "orderIds": "referencing the indices of user's orders to be cancelled     * Emits an {OrderCancellation} or {OrderDeletion} with sender's address and orderId"
        }
      },
      "constructor": {
        "details": "Constructor determines exchange parameters",
        "params": {
          "_feeToken": "Address of ERC20 fee token.",
          "maxTokens": "The maximum number of tokens that can be listed."
        }
      },
      "deposit(address,uint256)": {
        "details": "credits user with deposit amount on next epoch (given by getCurrentBatchId)",
        "params": {
          "amount": "number of token(s) to be credited to user's account     * Emits an {Deposit} event with relevent deposit information.     * Requirements: - token transfer to contract is successfull",
          "token": "address of token to be deposited"
        }
      },
      "getBalance(address,address)": {
        "details": "fetches and returns user's balance",
        "params": {
          "token": "address of ERC20 token return Current `token` balance of `user`'s account",
          "user": "address of user"
        }
      },
      "getCurrentBatchId()": {
        "details": "getter function to determine current auction id. return current batchId"
      },
      "getCurrentObjectiveValue()": {
        "details": "gets the objective value of currently winning solution.",
        "return": "objective function evaluation of the currently winning solution, or zero if no solution proposed."
      },
      "getEncodedOrders()": {
        "details": "View returning all byte-encoded sell orders",
        "return": "encoded bytes representing all orders ordered by (user, index)"
      },
      "getEncodedUserOrders(address)": {
        "details": "View returning all byte-encoded sell orders for specified user",
        "params": {
          "user": "address of user whose orders are being queried"
        },
        "return": "encoded bytes representing all orders"
      },
      "getEncodedUserOrdersPaginated(address,uint16,uint16)": {
        "details": "View returning all byte-encoded sell orders for specified user",
        "params": {
          "offset": "uint determining the starting orderIndex",
          "pageSize": "uint determining the count of elements to be viewed",
          "user": "address of user whose orders are being queried"
        },
        "return": "encoded bytes representing all orders"
      },
      "getEncodedUsersPaginated(address,uint16,uint16)": {
        "details": "View returning byte-encoded sell orders in paginated form",
        "params": {
          "pageSize": "uint determining the count of orders to be returned per page",
          "previousPageUser": "address of last user received in the previous page (address(0) for first page)",
          "previousPageUserOffset": "the number of orders received for the last user on the previous page (0 for first page)."
        },
        "return": "encoded bytes representing a page of orders ordered by (user, index)"
      },
      "getPendingDeposit(address,address)": {
        "details": "getter function used to display pending deposit",
        "params": {
          "token": "address of ERC20 token return amount and batchId of deposit's transfer if any (else 0)",
          "user": "address of user"
        }
      },
      "getPendingWithdraw(address,address)": {
        "details": "getter function used to display pending withdraw",
        "params": {
          "token": "address of ERC20 token return amount and batchId when withdraw was requested if any (else 0)",
          "user": "address of user"
        }
      },
      "getSecondsRemainingInBatch()": {
        "details": "used to determine how much time is left in a batch return seconds remaining in current batch"
      },
      "getUsersPaginated(address,uint16)": {
        "details": "View returning all byte-encoded users in paginated form",
        "params": {
          "pageSize": "uint determining the count of users to be returned per page",
          "previousPageUser": "address of last user received in last pages (address(0) for first page)"
        },
        "return": "encoded packed bytes of user addresses"
      },
      "hasToken(address)": {
        "details": "View returning a bool attesting whether token was already added",
        "params": {
          "addr": "address of the token to be checked"
        },
        "return": "bool attesting whether token was already added"
      },
      "hasValidWithdrawRequest(address,address)": {
        "details": "Used to determine if user has a valid pending withdraw request of specific token",
        "params": {
          "token": "address of ERC20 token return true if `user` has valid withdraw request for `token`, otherwise false",
          "user": "address of user"
        }
      },
      "placeOrder(uint16,uint16,uint32,uint128,uint128)": {
        "details": "A user facing function used to place limit sell orders in auction with expiry defined by batchId",
        "params": {
          "buyAmount": "relative minimum amount of requested buy amount",
          "buyToken": "id of token to be bought",
          "sellAmount": "maximum amount of sell token to be exchanged",
          "sellToken": "id of token to be sold",
          "validUntil": "batchId representing order's expiry"
        },
        "return": "orderId defined as the index in user's order array     * Emits an {OrderPlacement} event with all relevant order details."
      },
      "placeValidFromOrders(uint16[],uint16[],uint32[],uint32[],uint128[],uint128[])": {
        "details": "A user facing function used to place limit sell orders in auction with expiry defined by batchId Note that parameters are passed as arrays and the indices correspond to each order.",
        "params": {
          "buyAmounts": "relative minimum amount of requested buy amounts",
          "buyTokens": "ids of tokens to be bought",
          "sellAmounts": "maximum amounts of sell token to be exchanged",
          "sellTokens": "ids of tokens to be sold",
          "validFroms": "batchIds representing order's validity start time",
          "validUntils": "batchIds representing order's expiry"
        },
        "return": "`orderIds` an array of indices in which `msg.sender`'s orders are included     * Emits an {OrderPlacement} event with all relevant order details."
      },
      "replaceOrders(uint16[],uint16[],uint16[],uint32[],uint32[],uint128[],uint128[])": {
        "details": "A user facing wrapper to cancel and place new orders in the same transaction.",
        "params": {
          "buyAmounts": "relative minimum amount of requested buy amounts in new orders",
          "buyTokens": "ids of tokens to be bought in new orders",
          "cancellations": "indices of orders to be cancelled",
          "sellAmounts": "maximum amounts of sell token to be exchanged in new orders",
          "sellTokens": "ids of tokens to be sold in new orders",
          "validFroms": "batchIds representing order's validity start time in new orders",
          "validUntils": "batchIds represnnting order's expiry in new orders"
        },
        "return": "an array of indices in which `msg.sender`'s new orders are included     * Emits {OrderCancellation} events for all cancelled orders and {OrderPlacement} events with relevant new order details."
      },
      "requestFutureWithdraw(address,uint256,uint32)": {
        "details": "Signals and initiates user's intent to withdraw.",
        "params": {
          "amount": "number of token(s) to be withdrawn",
          "batchId": "state index at which request is to be made.     * Emits an {WithdrawRequest} event with relevent request information.",
          "token": "address of token to be withdrawn"
        }
      },
      "requestWithdraw(address,uint256)": {
        "details": "Signals and initiates user's intent to withdraw.",
        "params": {
          "amount": "number of token(s) to be withdrawn     * Emits an {WithdrawRequest} event with relevent request information.",
          "token": "address of token to be withdrawn"
        }
      },
      "submitSolution(uint32,uint256,address[],uint16[],uint128[],uint128[],uint16[])": {
        "details": "a solver facing function called for auction settlement",
        "params": {
          "batchId": "index of auction solution is referring to",
          "buyVolumes": "executed buy amounts for each order identified by index of owner-orderId arrays",
          "orderIds": "array of order indices used in parallel with owners to identify touched order",
          "owners": "array of addresses corresponding to touched orders",
          "prices": "list of prices for touched tokens indexed by next parameter",
          "tokenIdsForPrice": "price[i] is the price for the token with tokenID tokenIdsForPrice[i]"
        },
        "return": "the computed objective value of the solution     * Requirements: - Solutions for this `batchId` are currently being accepted. - Claimed objetive value is a great enough improvement on the current winning solution - Fee Token price is non-zero - `tokenIdsForPrice` is sorted. - Number of touched orders does not exceed `MAX_TOUCHED_ORDERS`. - Each touched order is valid at current `batchId`. - Each touched order's `executedSellAmount` does not exceed its remaining amount. - Limit Price of each touched order is respected. - Solution's objective evaluation must be positive.     * Sub Requirements: Those nested within other functions - checkAndOverrideObjectiveValue; Objetive value is a great enough improvement on the current winning solution - checkTokenConservation; for all, non-fee, tokens total amount sold == total amount bought"
      },
      "tokenAddressToIdMap(address)": {
        "details": "View returning ID of listed tokens",
        "params": {
          "addr": "address of listed token."
        },
        "return": "tokenId as stored within the contract."
      },
      "tokenIdToAddressMap(uint16)": {
        "details": "View returning address of listed token by ID",
        "params": {
          "id": "tokenId as stored, via BiMap, within the contract."
        },
        "return": "address of (listed) token"
      },
      "withdraw(address,address)": {
        "details": "Claims pending withdraw - can be called on behalf of others",
        "params": {
          "token": "address of token to be withdrawn",
          "user": "address of user who withdraw is being claimed.     * Emits an {Withdraw} event stating that `user` withdrew `amount` of `token`     * Requirements: - withdraw was requested in previous epoch - token was received from exchange in current auction batch"
        }
      }
    },
    "title": "BatchExchange - A decentralized exchange for any ERC20 token as a multi-token batch auction with uniform clearing prices. For more information visit: <https://github.com/gnosis/dex-contracts>"
  },
  "userdoc": {
    "methods": {}
  }
}