{
  "contractName": "CPKFactory",
  "abi": [
    {
      "anonymous": false,
      "inputs": [
        {
          "indexed": false,
          "internalType": "contract Proxy",
          "name": "proxy",
          "type": "address"
        }
      ],
      "name": "ProxyCreation",
      "type": "event"
    },
    {
      "constant": true,
      "inputs": [],
      "name": "proxyCreationCode",
      "outputs": [
        {
          "internalType": "bytes",
          "name": "",
          "type": "bytes"
        }
      ],
      "payable": false,
      "stateMutability": "pure",
      "type": "function"
    },
    {
      "constant": false,
      "inputs": [
        {
          "internalType": "address",
          "name": "masterCopy",
          "type": "address"
        },
        {
          "internalType": "uint256",
          "name": "saltNonce",
          "type": "uint256"
        },
        {
          "internalType": "address",
          "name": "fallbackHandler",
          "type": "address"
        },
        {
          "internalType": "address",
          "name": "to",
          "type": "address"
        },
        {
          "internalType": "uint256",
          "name": "value",
          "type": "uint256"
        },
        {
          "internalType": "bytes",
          "name": "data",
          "type": "bytes"
        },
        {
          "internalType": "enum Enum.Operation",
          "name": "operation",
          "type": "uint8"
        }
      ],
      "name": "createProxyAndExecTransaction",
      "outputs": [
        {
          "internalType": "bool",
          "name": "execTransactionSuccess",
          "type": "bool"
        }
      ],
      "payable": true,
      "stateMutability": "payable",
      "type": "function"
    }
  ],
  "bytecode": "0x608060405234801561001057600080fd5b50610f41806100206000396000f3fe6080604052600436106100295760003560e01c8063460868ca1461002e57806353e5d93514610140575b600080fd5b610126600480360360e081101561004457600080fd5b81019080803573ffffffffffffffffffffffffffffffffffffffff16906020019092919080359060200190929190803573ffffffffffffffffffffffffffffffffffffffff169060200190929190803573ffffffffffffffffffffffffffffffffffffffff16906020019092919080359060200190929190803590602001906401000000008111156100d557600080fd5b8201836020820111156100e757600080fd5b8035906020019184600183028401116401000000008311171561010957600080fd5b9091929391929390803560ff1690602001909291905050506101d0565b604051808215151515815260200191505060405180910390f35b34801561014c57600080fd5b50610155610ced565b6040518080602001828103825283818151815260200191508051906020019080838360005b8381101561019557808201518184015260208101905061017a565b50505050905090810190601f1680156101c25780820380516001836020036101000a031916815260200191505b509250505060405180910390f35b6000806060604051806020016101e590610d18565b6020820181038252601f19601f820116604052508b604051602001808273ffffffffffffffffffffffffffffffffffffffff1673ffffffffffffffffffffffffffffffffffffffff1681526020019150506040516020818303038152906040526040516020018083805190602001908083835b6020831061027b5780518252602082019150602081019050602083039250610258565b6001836020036101000a03801982511681845116808217855250505050505090500182805190602001908083835b602083106102cc57805182526020820191506020810190506020830392506102a9565b6001836020036101000a0380198251168184511680821785525050505050509050019250505060405160208183030381529060405290506000338b604051602001808373ffffffffffffffffffffffffffffffffffffffff1673ffffffffffffffffffffffffffffffffffffffff16815260200182815260200192505050604051602081830303815290604052805190602001209050808251836020016000f59250600073ffffffffffffffffffffffffffffffffffffffff168373ffffffffffffffffffffffffffffffffffffffff161415610411576040517f08c379a00000000000000000000000000000000000000000000000000000000081526004018080602001828103825260138152602001807f637265617465322063616c6c206661696c65640000000000000000000000000081525060200191505060405180910390fd5b6000341115610462578273ffffffffffffffffffffffffffffffffffffffff166108fc349081150290604051600060405180830381858888f19350505050158015610460573d6000803e3d6000fd5b505b606060016040519080825280602002602001820160405280156104945781602001602082028038833980820191505090505b50905030816000815181106104a557fe5b602002602001019073ffffffffffffffffffffffffffffffffffffffff16908173ffffffffffffffffffffffffffffffffffffffff16815250508373ffffffffffffffffffffffffffffffffffffffff1663b63e800d82600160008f60008060006040518863ffffffff1660e01b815260040180806020018881526020018773ffffffffffffffffffffffffffffffffffffffff1673ffffffffffffffffffffffffffffffffffffffff168152602001806020018773ffffffffffffffffffffffffffffffffffffffff1673ffffffffffffffffffffffffffffffffffffffff1681526020018673ffffffffffffffffffffffffffffffffffffffff1673ffffffffffffffffffffffffffffffffffffffff1681526020018581526020018473ffffffffffffffffffffffffffffffffffffffff1673ffffffffffffffffffffffffffffffffffffffff16815260200183810383528a818151815260200191508051906020019060200280838360005b83811015610630578082015181840152602081019050610615565b505050509050018381038252600081526020016020019950505050505050505050600060405180830381600087803b15801561066b57600080fd5b505af115801561067f573d6000803e3d6000fd5b50505050508273ffffffffffffffffffffffffffffffffffffffff16636a7612028a8a8a8a8a60008060008060003073ffffffffffffffffffffffffffffffffffffffff1660006001604051602001808481526020018381526020018260ff1660ff1660f81b815260010193505050506040516020818303038152906040526040518c63ffffffff1660e01b8152600401808c73ffffffffffffffffffffffffffffffffffffffff1673ffffffffffffffffffffffffffffffffffffffff1681526020018b81526020018060200189600181111561075957fe5b60ff1681526020018881526020018781526020018681526020018573ffffffffffffffffffffffffffffffffffffffff1673ffffffffffffffffffffffffffffffffffffffff1681526020018473ffffffffffffffffffffffffffffffffffffffff1673ffffffffffffffffffffffffffffffffffffffff1681526020018060200183810383528c8c82818152602001925080828437600081840152601f19601f820116905080830192505050838103825284818151815260200191508051906020019080838360005b8381101561083e578082015181840152602081019050610823565b50505050905090810190601f16801561086b5780820380516001836020036101000a031916815260200191505b509d5050505050505050505050505050602060405180830381600087803b15801561089557600080fd5b505af11580156108a9573d6000803e3d6000fd5b505050506040513d60208110156108bf57600080fd5b810190808051906020019092919050505093508273ffffffffffffffffffffffffffffffffffffffff16636a76120284600060013033604051602401808473ffffffffffffffffffffffffffffffffffffffff1673ffffffffffffffffffffffffffffffffffffffff1681526020018373ffffffffffffffffffffffffffffffffffffffff1673ffffffffffffffffffffffffffffffffffffffff1681526020018273ffffffffffffffffffffffffffffffffffffffff1673ffffffffffffffffffffffffffffffffffffffff16815260200193505050506040516020818303038152906040527fe318b52b000000000000000000000000000000000000000000000000000000007bffffffffffffffffffffffffffffffffffffffffffffffffffffffff19166020820180517bffffffffffffffffffffffffffffffffffffffffffffffffffffffff83818316178352505050506000806000806000803073ffffffffffffffffffffffffffffffffffffffff1660006001604051602001808481526020018381526020018260ff1660ff1660f81b815260010193505050506040516020818303038152906040526040518b63ffffffff1660e01b8152600401808b73ffffffffffffffffffffffffffffffffffffffff1673ffffffffffffffffffffffffffffffffffffffff1681526020018a815260200180602001896001811115610ac957fe5b60ff1681526020018881526020018781526020018681526020018573ffffffffffffffffffffffffffffffffffffffff1673ffffffffffffffffffffffffffffffffffffffff1681526020018473ffffffffffffffffffffffffffffffffffffffff1673ffffffffffffffffffffffffffffffffffffffff1681526020018060200183810383528b818151815260200191508051906020019080838360005b83811015610b83578082015181840152602081019050610b68565b50505050905090810190601f168015610bb05780820380516001836020036101000a031916815260200191505b50838103825284818151815260200191508051906020019080838360005b83811015610be9578082015181840152602081019050610bce565b50505050905090810190601f168015610c165780820380516001836020036101000a031916815260200191505b509c50505050505050505050505050602060405180830381600087803b158015610c3f57600080fd5b505af1158015610c53573d6000803e3d6000fd5b505050506040513d6020811015610c6957600080fd5b8101908080519060200190929190505050507fa38789425dbeee0239e16ff2d2567e31720127fbc6430758c1a4efc6aef29f8083604051808273ffffffffffffffffffffffffffffffffffffffff1673ffffffffffffffffffffffffffffffffffffffff16815260200191505060405180910390a150505098975050505050505050565b606060405180602001610cff90610d18565b6020820181038252601f19601f82011660405250905090565b6101e780610d268339019056fe608060405234801561001057600080fd5b506040516101e73803806101e78339818101604052602081101561003357600080fd5b8101908080519060200190929190505050600073ffffffffffffffffffffffffffffffffffffffff168173ffffffffffffffffffffffffffffffffffffffff1614156100ca576040517f08c379a00000000000000000000000000000000000000000000000000000000081526004018080602001828103825260248152602001806101c36024913960400191505060405180910390fd5b806000806101000a81548173ffffffffffffffffffffffffffffffffffffffff021916908373ffffffffffffffffffffffffffffffffffffffff1602179055505060aa806101196000396000f3fe608060405273ffffffffffffffffffffffffffffffffffffffff600054167fa619486e0000000000000000000000000000000000000000000000000000000060003514156050578060005260206000f35b3660008037600080366000845af43d6000803e60008114156070573d6000fd5b3d6000f3fea265627a7a72315820c79720b165380458f5a69345750b0a86c10a1feceae5065b744a1e981bf980db64736f6c63430005100032496e76616c6964206d617374657220636f707920616464726573732070726f7669646564a265627a7a72315820c9ef0191c2f445eea4caaeab24e02c596c2618c73c460ac3c0775cc8e06b263764736f6c63430005100032",
  "source": "pragma solidity >=0.5.0 <0.7.0;\n\nimport { Enum } from \"@gnosis.pm/safe-contracts/contracts/common/Enum.sol\";\nimport { Proxy } from \"@gnosis.pm/safe-contracts/contracts/proxies/Proxy.sol\";\nimport { GnosisSafe } from \"@gnosis.pm/safe-contracts/contracts/GnosisSafe.sol\";\n\ncontract CPKFactory {\n    event ProxyCreation(Proxy proxy);\n\n    function proxyCreationCode() external pure returns (bytes memory) {\n        return type(Proxy).creationCode;\n    }\n\n    function createProxyAndExecTransaction(\n        address masterCopy,\n        uint256 saltNonce,\n        address fallbackHandler,\n        address to,\n        uint256 value,\n        bytes calldata data,\n        Enum.Operation operation\n    )\n        external\n        payable\n        returns (bool execTransactionSuccess)\n    {\n        GnosisSafe proxy;\n        bytes memory deploymentData = abi.encodePacked(type(Proxy).creationCode, abi.encode(masterCopy));\n        bytes32 salt = keccak256(abi.encode(msg.sender, saltNonce));\n        // solium-disable-next-line security/no-inline-assembly\n        assembly {\n            proxy := create2(0x0, add(0x20, deploymentData), mload(deploymentData), salt)\n        }\n\n        require(address(proxy) != address(0), \"create2 call failed\");\n\n        if (msg.value > 0) address(proxy).transfer(msg.value);\n\n        {\n            address[] memory tmp = new address[](1);\n            tmp[0] = address(this);\n            proxy.setup(tmp, 1, address(0), \"\", fallbackHandler, address(0), 0, address(0));\n        }\n\n        execTransactionSuccess = proxy.execTransaction(to, value, data, operation, 0, 0, 0, address(0), address(0),\n            abi.encodePacked(uint(address(this)), uint(0), uint8(1)));\n\n        proxy.execTransaction(\n            address(proxy), 0,\n            abi.encodeWithSignature(\"swapOwner(address,address,address)\", address(1), address(this), msg.sender),\n            Enum.Operation.Call,\n            0, 0, 0, address(0), address(0),\n            abi.encodePacked(uint(address(this)), uint(0), uint8(1))\n        );\n\n        emit ProxyCreation(Proxy(address(proxy)));\n   }\n}\n",
  "sourcePath": "/Users/Hilmar/code/gelato/contract-proxy-kit/contracts/CPKFactory.sol",
  "compiler": {
    "name": "solc",
    "version": "0.5.16+commit.9c3226ce.Emscripten.clang"
  },
  "schemaVersion": "3.0.23",
  "updatedAt": "2020-03-18T18:49:36.700Z",
  "networkType": "ethereum",
  "devdoc": {
    "methods": {}
  },
  "userdoc": {
    "methods": {}
  }
}